:100000000C9462000C948A000C948A000C948A0070
:100010000C948A000C948A000C948A000C948A0038
:100020000C948A000C948A000C948A000C948A0028
:100030000C948A000C948A000C948A000C948A0018
:100040000C9481040C948A000C944F040C942904A1
:100050000C948A000C948A000C948A000C948A00F8
:100060000C948A000C948A000000000023002600F3
:10007000290000000000240027002A0000000000E2
:10008000250028002B0004040404040404040202D4
:100090000202020203030303030301020408102007
:1000A0004080010204081020010204081020000012
:1000B0000008000201000003040700000000000027
:1000C0000000100511241FBECFEFD8E0DEBFCDBF6A
:1000D00011E0A0E0B1E0E2E3F4E102C005900D928E
:1000E000A036B107D9F722E0A0E6B1E001C01D9229
:1000F000A231B207E1F710E0C2E6D0E004C02197D8
:10010000FE010E941F08C136D107C9F70E94690588
:100110000C94170A0C940000AF92BF92CF92DF921A
:10012000EF92FF920F931F93CF93DF936C017B01AC
:100130008B01040F151FEB015E01AE18BF08C0173D
:10014000D10759F06991D601ED91FC910190F081B0
:10015000E02DC6010995892B79F7C501DF91CF9173
:100160001F910F91FF90EF90DF90CF90BF90AF90D5
:100170000895CF93DF93FC014481558160817181A3
:1001800089E691E00E948C00EC0142E050E06CE1D5
:1001900071E089E691E00E948C008C0F9D1FDF9139
:1001A000CF910895FC01538D448D252F30E0842F8D
:1001B00090E0821B930B541710F0CF96089501978F
:1001C0000895FC01918D828D981761F0A28DAE0F7C
:1001D000BF2FB11D5D968C91928D9F5F9F73928F03
:1001E00090E008958FEF9FEF0895FC01918D828D2F
:1001F000981731F0828DE80FF11D858D90E00895FC
:100200008FEF9FEF0895FC01918D228D892F90E053
:10021000805C9F4F821B91098F739927089589E60F
:1002200091E00E94030121E0892B09F420E0822F54
:10023000089580E090E0892B29F00E940F01811140
:100240000C9400000895FC01A48DA80FB92FB11DD6
:10025000A35ABF4F2C91848D90E001968F739927FC
:10026000848FA689B7892C93A089B1898C918370DA
:1002700080648C93938D848D981306C00288F389D3
:10028000E02D80818F7D80830895EF92FF920F9300
:100290001F93CF93DF93EC0181E0888F9B8D8C8D32
:1002A00098131AC0E889F989808185FF15C09FB726
:1002B000F894EE89FF896083E889F98980818370E9
:1002C000806480839FBF81E090E0DF91CF911F9198
:1002D0000F91FF90EF900895F62E0B8D10E00F5FB9
:1002E0001F4F0F731127E02E8C8D8E110CC00FB68F
:1002F00007FCFACFE889F989808185FFF5CFCE0127
:100300000E942301F1CFEB8DEC0FFD2FF11DE35A7D
:10031000FF4FF0829FB7F8940B8FEA89FB898081A9
:100320008062CFCFCF93DF93EC01888D8823B9F023
:10033000AA89BB89E889F9898C9185FD03C08081F0
:1003400086FD0DC00FB607FCF7CF8C9185FFF2CF6D
:10035000808185FFEDCFCE010E942301E9CFDF919F
:10036000CF91089590E0FC01E255FF4F2491FC01EC
:10037000E656FF4F3491FC01EA57FF4FE491EE231C
:10038000C9F0222339F0233001F1A8F4213019F10A
:10039000223029F1F0E0EE0FFF1FE458FF4FA59146
:1003A000B4918FB7F894EC91611126C030953E233B
:1003B0003C938FBF08952730A9F02830C9F024302E
:1003C00049F7809180008F7D03C0809180008F77F6
:1003D00080938000DFCF84B58F7784BDDBCF84B579
:1003E0008F7DFBCF8091B0008F778093B000D2CF0C
:1003F0008091B0008F7DF9CF3E2BDACFCF93DF9382
:1004000090E0FC01E656FF4F24918A579F4FFC0174
:1004100084918823D1F090E0880F991FFC01EE5859
:10042000FF4FA591B491FC01E458FF4FC591D491C1
:1004300061110EC09FB7F8948C91E22FE0958E2346
:100440008C932881E223E8839FBFDF91CF910895A9
:100450008FB7F894EC91E22BEC938FBFF6CF3FB7B8
:10046000F8948091650190916601A0916701B09127
:10047000680126B5A89B05C02F3F19F00196A11D64
:10048000B11D3FBFBA2FA92F982F8827BC01CD01DE
:10049000620F711D811D911D42E0660F771F881F3D
:1004A000991F4A95D1F708958F929F92AF92BF926C
:1004B000CF92DF92EF92FF924B015C010E942F02DC
:1004C0006B017C010E942F026C197D098E099F0926
:1004D000683E734081059105A8F321E0821A9108D6
:1004E000A108B10888EEC80E83E0D81EE11CF11CFB
:1004F00081149104A104B10429F7FF90EF90DF90DB
:10050000CF90BF90AF909F908F9008950F931F93BF
:10051000CF93C82F8B0161E00E94B20128EE33E037
:10052000D8010E94180824EB30E040E050E00E941F
:10053000910728513C4F4F4F5F4F220F331F220F1F
:10054000331F25503109C9010197F1F760E08C2F65
:100550000E94B2016AE070E080E090E0CF911F91CC
:100560000F910C9454020F931F93CF93DF93EC01E0
:1005700088819981009759F02A813B812617370796
:1005800030F081E0DF91CF911F910F9108958B01A1
:100590006F5F7F4F0E944A09009759F099838883C3
:1005A0001B830A832C813D81232B59F7FC01108288
:1005B000E8CF80E0E7CFCF93DF93EC01888199818A
:1005C000009711F00E94C108198218821D821C82B6
:1005D0001B821A82DF91CF910895CF92DF92EF9222
:1005E000FF920F931F93CF93DF9300D000D000D0E2
:1005F0001F92CDB7DEB77C01CB014AE09E012F5F91
:100600003F4F6901B9010E940107F60101900020E6
:10061000E9F73197EC19FD09D9F0D70114960D913E
:100620001C910E0F1F1FB801C7010E94B30288233F
:10063000F9F0F7012081318184819581B601820F23
:10064000931F0E94100AD70115961C930E931497BE
:10065000C70127960FB6F894DEBF0FBECDBFDF915E
:10066000CF911F910F91FF90EF90DF90CF90089561
:10067000C7010E94DB02ECCFEF92FF920F931F9312
:10068000CF93DF93EC01FB01E080F180E114F104F2
:1006900011F10481158101151105A9F08C819D814D
:1006A000080F191FB801CE010E94B302882399F0E8
:1006B000288139818C819D81B701820F931F0E940F
:1006C000100A1D830C83CE01DF91CF911F910F91F2
:1006D000FF90EF900895CE010E94DB02F4CFEF92DD
:1006E000FF920F931F93CF93DF93EC017B0119824D
:1006F00018821B821A821D821C82FB01019000203D
:10070000E9F731978F01061B170BB8010E94B3025E
:10071000811109C0CE01DF91CF911F910F91FF9000
:10072000EF900C94DB021D830C83B70188819981C3
:10073000DF91CF911F910F91FF90EF900C94100AD1
:10074000FC0180819181009711F00C94C1080895FB
:10075000EF92FF920F931F93CF93DF93EC011982D7
:1007600018821B821A821D821C828617970719F134
:10077000FB010081118101151105E9F0E480F5808C
:10078000B7010E94B302811109C0CE01DF91CF9160
:100790001F910F91FF90EF900C94DB02FD82EC8291
:1007A000B80188819981DF91CF911F910F91FF90BE
:1007B000EF900C94100ADF91CF911F910F91FF9051
:1007C000EF9008950F931F93CF93DF93EC0160E0B8
:1007D00088810E94B20183E090E00197F1F761E027
:1007E00088810E94B20183E290E00197F1F760E016
:1007F00088810E94B201898190E0FC01E656FF4F9A
:100800006491FC01EA57FF4FE491F0E0EE0FFF1F07
:10081000E859FF4F8591949100E412E42FE030E015
:10082000462F0E94CB04611571058105910529F0C1
:100830006F5F7F4F8F4F9F4F9F702BE330E040E003
:1008400050E00E94E707C901DF91CF911F910F91FE
:1008500008951F920F920FB60F9211242F933F937A
:100860004F935F936F937F938F939F93AF93BF93B8
:10087000EF93FF9389E691E00E942301FF91EF91AE
:10088000BF91AF919F918F917F916F915F914F91A8
:100890003F912F910F900FBE0F901F9018951F92B0
:1008A0000F920FB60F9211242F938F939F93EF9374
:1008B000FF93E0917901F0917A018081E0917F01CD
:1008C000F091800182FD1BC09081809182018F5F39
:1008D0008F7320918301821741F0E0918201F0E053
:1008E000E759FE4F958F80938201FF91EF919F9181
:1008F0008F912F910F900FBE0F901F9018958081B0
:10090000F4CF1F920F920FB60F9211242F933F93A3
:100910008F939F93AF93BF938091610190916201F8
:10092000A0916301B09164013091600123E0230F35
:100930002D3758F50196A11DB11D209360018093BC
:10094000610190936201A0936301B093640180916F
:10095000650190916601A0916701B09168010196CF
:10096000A11DB11D8093650190936601A09367015D
:10097000B0936801BF91AF919F918F913F912F915B
:100980000F900FBE0F901F90189526E8230F029628
:10099000A11DB11DD2CFCF92DF92EF92FF920F93A4
:1009A0001F93E82FF92F05C00150110921093109C2
:1009B00061F1908196239417B9F305C00150110994
:1009C0002109310911F1908196239413F7CFC12C9D
:1009D000D12CE12CF12C0AC08FEFC81AD80AE80AF2
:1009E000F80A0C151D052E053F0579F08081862338
:1009F000841791F36C2D7D2D8E2D9F2D1F910F91BE
:100A0000FF90EF90DF90CF90089560E070E080E07D
:100A100090E01F910F91FF90EF90DF90CF9008959D
:100A2000E9E6F1E01382128288EE93E0A0E0B0E004
:100A300084839583A683B7838EE091E0918380833E
:100A400085EC90E09587848784EC90E09787868793
:100A500080EC90E0918B808B81EC90E0938B828B8B
:100A600082EC90E0958B848B86EC90E0978B868B64
:100A7000118E128E138E148E61E084E00E94FE01AE
:100A800060E085E00E94FE01ECE0F2E084E080831B
:100A900085E0818361E087E00E94FE0160E086E0FE
:100AA0000E94FE01EAE0F2E087E0808386E0818335
:100AB000CF010E94E203BC0190E080E00E94300779
:100AC00060930602709307028093080290930902D4
:100AD0000895CF93DF93CDB7DEB762970FB6F89442
:100AE000DEBF0FBECDBF789484B5826084BD84B56F
:100AF000816084BD85B5826085BD85B5816085BD19
:100B000080916E00816080936E00109281008091D0
:100B10008100826080938100809181008160809358
:100B20008100809180008160809380008091B1007D
:100B300084608093B1008091B00081608093B000A8
:100B400080917A00846080937A0080917A0082603C
:100B500080937A0080917A00816080937A008091FE
:100B60007A00806880937A001092C100E091790148
:100B7000F0917A0182E08083E0917501F091760135
:100B80001082E0917701F09178018FEC80831092D0
:100B90008101E0917D01F0917E0186E08083E0910A
:100BA0007B01F0917C01808180618083E0917B01F9
:100BB000F0917C01808188608083E0917B01F091DD
:100BC0007C01808180688083E0917B01F0917C01D1
:100BD00080818F7D808361E089E00E94FE0161E079
:100BE0008AE00E94FE0170E060E089E090E00E94EF
:100BF00086026AE570E08AE090E00E94860200E0EA
:100C000010E06FE171E0CE0101960E946F038CE06D
:100C100092E00E94E2037C0163E271E0CE010D9656
:100C20000E946F03BE01635F7F4FCE0107960E9453
:100C3000A803B701CE0107960E94ED02BE016F5FC7
:100C40007F4F0E943C030E94B900CE0107960E948C
:100C5000A003CE010D960E94A003CE0101960E9432
:100C6000A0036FE171E0CE0101960E946F038AE05C
:100C700092E00E94E2037C0161E471E0CE010D96F6
:100C80000E946F03BE01635F7F4FCE0107960E94F3
:100C9000A803B701CE0107960E94ED02BE016F5F67
:100CA0007F4F0E943C030E94B900CE0107960E942C
:100CB000A003CE010D960E94A003CE0101960E94D2
:100CC000A00364EF71E080E090E00E9454028AE0AB
:100CD00092E00E94E203BC0190E080E00E943007B5
:100CE00060930602709307028093080290930902B2
:100CF0008CE092E00E94E203449708F076C06AE537
:100D000070E089E090E00E94860260E177E280E096
:100D100090E00E94540270E060E089E090E00E9460
:100D2000860268EE73E080E090E00E9454028AE060
:100D300092E00E94E2034F97B0F0209100013091C1
:100D400001014091020150910301609106027091EE
:100D5000070280910802909109020E942B0770E01F
:100D600060E081111CC08AE092E00E94E2034F978C
:100D700030F5209100013091010140910201509124
:100D80000301609106027091070280910802909120
:100D900009020E942B07882391F064EB70E08AE03F
:100DA00090E00E94860264EF71E080E090E00E9493
:100DB00054026AE570E08AE090E00E94860268EEE4
:100DC00073E080E090E00E945402809106029091CE
:100DD0000702A0910802B09109028093000190934C
:100DE0000101A0930201B09303010115110509F45B
:100DF00008CF0E940F01882309F403CF0E9400004E
:100E000000CFBB27FB015527AA27880F991FAA1FD0
:100E1000A41710F0A41B83955051B9F7A05DAA3315
:100E200008F0A95DA193009779F7B111B1931192E0
:100E3000CB010C941B07DC01FC01672F7191772318
:100E4000E1F7329704C07C916D9370836291AE1785
:100E5000BF07C8F308950E946D0708F481E0089564
:100E6000E89409C097FB3EF4909580957095619544
:100E70007F4F8F4F9F4F9923A9F0F92F96E9BB27FA
:100E80009395F695879577956795B795F111F8CF76
:100E9000FAF4BB0F11F460FF1BC06F5F7F4F8F4FE1
:100EA0009F4F16C0882311F096E911C0772321F0D7
:100EB0009EE8872F762F05C0662371F096E8862F6F
:100EC00070E060E02AF09A95660F771F881FDAF7C6
:100ED000880F9695879597F90895990F0008550FF3
:100EE000AA0BE0E8FEEF16161706E807F907C0F0B0
:100EF00012161306E407F50798F0621B730B840BB8
:100F0000950B39F40A2661F0232B242B252B21F491
:100F100008950A2609F4A140A6958FEF811D811D31
:100F20000895052E97FB1EF400940E94A80757FD14
:100F300007D00E94E70707FC03D04EF40C94A807E3
:100F400050954095309521953F4F4F4F5F4F0895F5
:100F500090958095709561957F4F8F4F9F4F089525
:100F60002F923F924F925F926F927F928F929F92B9
:100F7000AF92BF92CF92DF92EF92FF920F931F93A7
:100F8000CF93DF93CDB7DEB7CA1BDB0B0FB6F89458
:100F9000DEBF0FBECDBF09942A88398848885F8498
:100FA0006E847D848C849B84AA84B984C884DF8009
:100FB000EE80FD800C811B81AA81B981CE0FD11DED
:100FC0000FB6F894DEBF0FBECDBFED010895A1E2CC
:100FD0001A2EAA1BBB1BFD010DC0AA1FBB1FEE1FB3
:100FE000FF1FA217B307E407F50720F0A21BB30BFE
:100FF000E40BF50B661F771F881F991F1A9469F77A
:1010000060957095809590959B01AC01BD01CF01D5
:101010000895A29FB001B39FC001A39F700D811DD1
:101020001124911DB29F700D811D1124911D0895F1
:101030000E940908B7FF0895821B930B0895EE0FD5
:10104000FF1F0590F491E02D09940F931F93CF9308
:10105000DF938230910510F482E090E0E09110027D
:10106000F091110230E020E0B0E0A0E0309799F478
:101070002115310509F44AC0281B390B24303105EC
:10108000D8F58A819B816115710589F1FB019383F4
:101090008283FE0111C04081518102811381481772
:1010A0005907E0F04817590799F4109761F0129624
:1010B0000C93129713961C933296CF01DF91CF9128
:1010C0001F910F9108950093100210931102F4CF15
:1010D0002115310551F04217530738F0A901DB0102
:1010E0009A01BD01DF01F801C1CFEF01F9CF909363
:1010F000110280931002CDCFFE01E20FF31F819306
:1011000091932250310939832883D7CF20910E0241
:1011100030910F02232B41F42091060130910701F9
:1011200030930F0220930E022091040130910501AB
:101130002115310541F42DB73EB74091080150917A
:101140000901241B350BE0910E02F0910F02E2170A
:10115000F307A0F42E1B3F0B2817390778F0AC01DA
:101160004E5F5F4F2417350748F04E0F5F1F5093B7
:101170000F0240930E02819391939FCFF0E0E0E045
:101180009CCFCF93DF930097E9F0FC013297138255
:101190001282A0911002B0911102ED0130E020E026
:1011A0001097A1F420813181820F931F20910E02AC
:1011B00030910F022817390709F061C0F0930F0230
:1011C000E0930E02DF91CF910895EA01CE17DF0779
:1011D000E8F54A815B819E0141155105B1F7E901AE
:1011E000FB83EA8349915991C40FD51FEC17FD0782
:1011F00061F4808191810296840F951FE9019983A2
:101200008883828193819B838A83F0E0E0E0129659
:101210008D919C9113970097B9F52D913C91119761
:10122000CD010296820F931F20910E0230910F0282
:101230002817390739F6309751F51092110210929C
:101240001002B0930F02A0930E02BCCFD383C283CF
:1012500040815181840F951FC817D90761F44E5FF3
:101260005F4F88819981480F591F518340838A813C
:101270009B81938382832115310509F0B0CFF093D0
:101280001102E09310029ECFFD01DC01C0CF13825A
:101290001282D7CFB0E0A0E0E0E5F9E00C94B2070D
:1012A0008C01009751F4CB010E9425088C01C801E4
:1012B000CDB7DEB7E0E10C94CE07FC01E60FF71FD7
:1012C0009C0122503109E217F30708F49DC0D901AF
:1012D000CD91DC911197C617D70798F0C530D1058D
:1012E00030F3CE0104978617970708F3C61BD70B78
:1012F0002297C193D1936D937C93CF010E94C10833
:10130000D6CF5B01AC1ABD0A4C018C0E9D1EA0917C
:101310001002B0911102512C412CF12CE12C1097AC
:1013200031F580910E0290910F028815990509F010
:101330005CC04616570608F058C080910401909191
:101340000501009741F48DB79EB740910801509177
:101350000901841B950BE817F90708F055C0F093B5
:101360000F02E0930E02F90171836083A0CF8D918B
:101370009C91119712966C90129713967C901397EC
:10138000A815B90559F56C0142E0C40ED11CCA1468
:10139000DB0420F1AC014A195B09DA0112961597BA
:1013A00080F06282738251834083D9016D937C9374
:1013B000E114F10471F0D7011396FC93EE931297A8
:1013C00076CF22968C0F9D1FF90191838083F301C4
:1013D000EFCFF0931102E093100269CF481659063F
:1013E00008F42C017D01D3019ACFCB010E9425087E
:1013F0007C01009749F0AE01B8010E94070AC801BC
:101400000E94C108870153CF10E000E050CFFB01DC
:10141000DC0102C001900D9241505040D8F7089570
:10142000FB01DC0101900D920020E1F70895F89492
:02143000FFCFEC
:10143200000040C0000012028000000000004501D0
:101442008C00D20092010301E100F5000D0A002098
:10145200636D0044697374C3A26E6369612073652E
:101462006E736F722064697374616E6369613A208E
:101472000044697374C3A26E6369612073656E73FD
:101482006F72207175616E7469646164653A2000DF
:00000001FF
