:100000000C9462000C948A000C948A000C948A0070
:100010000C948A000C948A000C948A000C948A0038
:100020000C948A000C948A000C948A000C948A0028
:100030000C948A000C948A000C948A000C948A0018
:100040000C94DE030C948A000C94AC030C9486038D
:100050000C948A000C948A000C948A000C948A00F8
:100060000C948A000C948A000000000024002700F1
:100070002A0000000000250028002B0000000000DE
:1000800023002600290004040404040404040202DA
:100090000202020203030303030301020408102007
:1000A0004080010204081020010204081020000012
:1000B0000008000201000003040700000000000027
:1000C00000007A0511241FBECFEFD8E0DEBFCDBF00
:1000D00011E0A0E0B1E0E8ECF0E102C005900D9283
:1000E000A032B107D9F721E0A0E2B1E001C01D9232
:1000F000A63DB207E1F710E0C2E6D0E004C02197C8
:10010000FE010E946A06C136D107C9F70E94280481
:100110000C9462080C940000AF92BF92CF92DF92D1
:10012000EF92FF920F931F93CF93DF936C017B01AC
:100130008B01040F151FEB015E01AE18BF08C0173D
:10014000D10759F06991D601ED91FC910190F081B0
:10015000E02DC6010995892B79F7C501DF91CF9173
:100160001F910F91FF90EF90DF90CF90BF90AF90D5
:100170000895CF93DF93FC014481558160817181A3
:1001800085E391E00E948C00EC0142E050E068E1E0
:1001900071E085E391E00E948C008C0F9D1FDF9140
:1001A000CF910895FC01538D448D252F30E0842F8D
:1001B00090E0821B930B541710F0CF96089501978F
:1001C0000895FC01918D828D981761F0A28DAE0F7C
:1001D000BF2FB11D5D968C91928D9F5F9F73928F03
:1001E00090E008958FEF9FEF0895FC01918D828D2F
:1001F000981731F0828DE80FF11D858D90E00895FC
:100200008FEF9FEF0895FC01918D228D892F90E053
:10021000805C9F4F821B91098F739927089585E316
:1002200091E00E94030121E0892B09F420E0822F54
:10023000089580E090E0892B29F00E940F01811140
:100240000C9400000895FC01A48DA80FB92FB11DD6
:10025000A35ABF4F2C91848D90E001968F739927FC
:10026000848FA689B7892C93A089B1898C918370DA
:1002700080648C93938D848D981306C00288F389D3
:10028000E02D80818F7D80830895EF92FF920F9300
:100290001F93CF93DF93EC0181E0888F9B8D8C8D32
:1002A00098131AC0E889F989808185FF15C09FB726
:1002B000F894EE89FF896083E889F98980818370E9
:1002C000806480839FBF81E090E0DF91CF911F9198
:1002D0000F91FF90EF900895F62E0B8D10E00F5FB9
:1002E0001F4F0F731127E02E8C8D8E110CC00FB68F
:1002F00007FCFACFE889F989808185FFF5CFCE0127
:100300000E942301F1CFEB8DEC0FFD2FF11DE35A7D
:10031000FF4FF0829FB7F8940B8FEA89FB898081A9
:100320008062CFCFCF93DF93EC01888D8823B9F023
:10033000AA89BB89E889F9898C9185FD03C08081F0
:1003400086FD0DC00FB607FCF7CF8C9185FFF2CF6D
:10035000808185FFEDCFCE010E942301E9CFDF919F
:10036000CF910895833081F028F4813099F0823064
:10037000A9F008958730A9F08830C9F08430B1F42D
:10038000809180008F7D03C0809180008F77809363
:100390008000089584B58F7784BD089584B58F7DDE
:1003A000FBCF8091B0008F778093B000089580914B
:1003B000B0008F7DF9CFCF93DF93282F30E0F90184
:1003C000E255FF4F8491F901E656FF4FD491F901B0
:1003D000EA57FF4FC491CC23A1F081110E94B201D2
:1003E000EC2FF0E0EE0FFF1FE458FF4FA591B49102
:1003F000EC91ED2381E090E009F480E0DF91CF9172
:10040000089580E090E0FACF1F93CF93DF93282FD9
:1004100030E0F901E255FF4F8491F901E656FF4FB4
:10042000D491F901EA57FF4FC491CC23A9F0162FBC
:1004300081110E94B201EC2FF0E0EE0FFF1FEE5889
:10044000FF4FA591B4918FB7F894EC91111108C0AA
:10045000D095DE23DC938FBFDF91CF911F9108955C
:10046000DE2BF8CFCF93DF9390E0FC01E656FF4FF1
:1004700024918A579F4FFC0184918823D1F090E00A
:10048000880F991FFC01E859FF4FA591B491FC0119
:10049000EE58FF4FC591D491623071F49FB7F89434
:1004A0003C91822F809583238C93E8812E2B288387
:1004B0009FBFDF91CF9108958FB7F894EC912E2BC9
:1004C0002C938FBFF6CF8E50806480937C008091F8
:1004D0007A00806480937A0080917A0086FDFCCF58
:1004E000809178009091790008953FB7F8948091B9
:1004F000250190912601A0912701B091280126B5F0
:10050000A89B05C02F3F19F00196A11DB11D3FBF4B
:10051000BA2FA92F982F8827BC01CD01620F711D1A
:10052000811D911D42E0660F771F881F991F4A9514
:10053000D1F708958F929F92AF92BF92CF92DF92A0
:10054000EF92FF920E9475024B015C0184EFC82E6E
:10055000DD24D394E12CF12C0E94750268197909ED
:100560008A099B09683E734081059105A8F321E043
:10057000C21AD108E108F10888EE880E83E0981EBF
:10058000A11CB11CC114D104E104F10429F7FF90AE
:10059000EF90DF90CF90BF90AF909F908F90089595
:1005A000FC0180819181009711F00C940C07089553
:1005B0000F931F93CF93DF93EC018881998100976C
:1005C00059F02A813B812617370730F081E0DF910F
:1005D000CF911F910F9108958B016F5F7F4F0E9404
:1005E0009507009759F0998388831B830A832C8190
:1005F0003D81232B59F7FC011082E8CF80E0E7CF43
:10060000CF92DF92EF92FF920F931F93CF93DF93DE
:10061000CDB7DEB728970FB6F894DEBF0FBECDBFBB
:100620008C01CB014AE09E012F5F3F4F6901B90168
:100630000E94A705F60101900020E9F73197EC1917
:10064000FD09D9F0D8011496ED90FC90EE0EFF1E36
:10065000B701C8010E94D802F801208131818823A6
:10066000E1F084819581B601820F931F0E945B089F
:10067000D8011596FC92EE921497C80128960FB6F1
:10068000F894DEBF0FBECDBFDF91CF911F910F91C8
:10069000FF90EF90DF90CF9008952115310519F06C
:1006A000C9010E940C07F801118210821582148280
:1006B00013821282E2CFEF92FF920F931F93CF9398
:1006C000DF93EC017B018A01BA010E94D8022881E4
:1006D0003981811114C02115310519F0C9010E9419
:1006E0000C07198218821D821C821B821A82CE017D
:1006F000DF91CF911F910F91FF90EF9008951D838F
:100700000C83B701C9010E945B08F1CF1F920F92C1
:100710000FB60F9211242F933F934F935F936F93D4
:100720007F938F939F93AF93BF93EF93FF9385E353
:1007300091E00E942301FF91EF91BF91AF919F91B2
:100740008F917F916F915F914F913F912F910F907A
:100750000FBE0F901F9018951F920F920FB60F9219
:1007600011242F938F939F93EF93FF93E091450173
:10077000F09146018081E0914B01F0914C0182FDA6
:100780001BC0908180914E018F5F8F7320914F012C
:10079000821741F0E0914E01F0E0EB5CFE4F958F47
:1007A00080934E01FF91EF919F918F912F910F9028
:1007B0000FBE0F901F9018958081F4CF1F920F925B
:1007C0000FB60F9211242F933F938F939F93AF9364
:1007D000BF938091210190912201A0912301B091BA
:1007E00024013091200123E0230F2D3758F5019685
:1007F000A11DB11D2093200180932101909322011E
:10080000A0932301B09324018091250190912601AA
:10081000A0912701B09128010196A11DB11D8093DF
:10082000250190932601A0932701B0932801BF9141
:10083000AF919F918F913F912F910F900FBE0F908D
:100840001F90189526E8230F0296A11DB11DD2CF47
:10085000CF93DF93CDB7DEB72C970FB6F894DEBFFA
:100860000FBECDBF789484B5826084BD84B58160AD
:1008700084BD85B5826085BD85B5816085BD80916B
:100880006E00816080936E001092810080918100E3
:1008900082608093810080918100816080938100DB
:1008A000809180008160809380008091B10084609D
:1008B0008093B1008091B00081608093B0008091FE
:1008C0007A00846080937A0080917A0082608093BD
:1008D0007A0080917A00816080937A0080917A001A
:1008E000806880937A001092C10061E08DE00E94E0
:1008F000320262E082E00E94320262E083E00E9403
:100900003202E0914501F091460182E08083E0915E
:100910004101F09142011082E0914301F0914401C4
:100920008FEC808310924D01E0914901F0914A01D2
:1009300086E08083E0914701F091480180818061E9
:100940008083E0914701F091480180818860808335
:10095000E0914701F0914801808180688083E091B7
:100960004701F091480180818F7D8083CC24CA9417
:1009700083E0D82EE12CF12C90E0A92E90E0B92E46
:100980008EE00E9463023C01909334018093330116
:100990008FE00E9463028C019093320180933101B9
:1009A0002FEF30E0D3010E946306A70196010E9459
:1009B000DC0529013093300120932F012FEF30E027
:1009C000D8010E946306A70196010E94DC053093BE
:1009D0002E0120932D0182E00E94DB018C01909377
:1009E0002C0180932B0183E00E94DB0190932A016C
:1009F00080932901012BA1F561E08DE00E940402A2
:100A000018861F821A8619861C861B8641E050E0D4
:100A10006BE171E0CE0107960E945B031A82198296
:100A20001C821B821E821D826F8178856115710573
:100A300031F04B855C85CE0101960E945B03B201CB
:100A4000CE0101960E9400030E94B900CE010196DA
:100A50000E94D002CE0107960E94D0020E949A0204
:100A60008091290190912A01892BC1F560E08DE0E8
:100A70000E94040200912D0110912E0118861F8200
:100A80001A8619861C861B8641E050E06DE171E0F4
:100A9000CE0107960E945B031A8219821C821B8278
:100AA0001E821D826F8178856115710531F04B853D
:100AB0005C85CE0101960E945B03B801CE010196D0
:100AC0000E9400030E94B900CE0101960E94D0024C
:100AD000CE0107960E94D0020E949A02A114B1048E
:100AE00009F44ECF0E940F01882309F449CF0E94D8
:100AF000000046CFE5E3F1E01382128288EE93E036
:100B0000A0E0B0E084839583A683B7838AE091E078
:100B10009183808385EC90E09587848784EC90E0D6
:100B20009787868780EC90E0918B808B81EC90E0BA
:100B3000938B828B82EC90E0958B848B86EC90E09B
:100B4000978B868B118E128E138E148E0895BB2771
:100B50004A3031F4992322F4BDE2909581959F4F5C
:100B60000C94B305BB27FB015527AA27880F991FB3
:100B7000AA1FA41710F0A41B83955051B9F7A05DCC
:100B8000AA3308F0A95DA193009779F7B111B19349
:100B90001192CB010C94CC05DC01FC01672F719103
:100BA0007723E1F7329704C07C916D937083629153
:100BB000AE17BF07C8F30895052E97FB1EF40094E7
:100BC0000E94F30557FD07D00E94320607FC03D0B0
:100BD0004EF40C94F30550954095309521953F4F78
:100BE0004F4F5F4F089590958095709561957F4F19
:100BF0008F4F9F4F08952F923F924F925F926F9227
:100C00007F928F929F92AF92BF92CF92DF92EF929C
:100C1000FF920F931F93CF93DF93CDB7DEB7CA1B1D
:100C2000DB0B0FB6F894DEBF0FBECDBF09942A8848
:100C3000398848885F846E847D848C849B84AA84F0
:100C4000B984C884DF80EE80FD800C811B81AA817D
:100C5000B981CE0FD11D0FB6F894DEBF0FBECDBF48
:100C6000ED010895A1E21A2EAA1BBB1BFD010DC0C8
:100C7000AA1FBB1FEE1FFF1FA217B307E407F5074C
:100C800020F0A21BB30BE40BF50B661F771F881F28
:100C9000991F1A9469F760957095809590959B01BE
:100CA000AC01BD01CF010895A29FB001B39FC00167
:100CB000A39F700D811D1124911DB29F700D811D88
:100CC0001124911D08950E945406B7FF0895821BB8
:100CD000930B0895EE0FFF1F0590F491E02D0994FA
:100CE0000F931F93CF93DF938230910510F482E02E
:100CF00090E0E091D401F091D50130E020E0B0E047
:100D0000A0E0309799F42115310509F44AC0281B59
:100D1000390B24303105D8F58A819B816115710525
:100D200089F1FB0193838283FE0111C040815181CF
:100D30000281138148175907E0F04817590799F4C1
:100D4000109761F012960C93129713961C9332969B
:100D5000CF01DF91CF911F910F9108950093D4019E
:100D60001093D501F4CF2115310551F042175307E7
:100D700038F0A901DB019A01BD01DF01F801C1CF03
:100D8000EF01F9CF9093D5018093D401CDCFFE012F
:100D9000E20FF31F81939193225031093983288305
:100DA000D7CF2091D2013091D301232B41F4209150
:100DB0000201309103013093D3012093D20120919D
:100DC0000001309101012115310541F42DB73EB7E5
:100DD0004091040150910501241B350BE091D20193
:100DE000F091D301E217F307A0F42E1B3F0B281755
:100DF000390778F0AC014E5F5F4F2417350748F094
:100E00004E0F5F1F5093D3014093D2018193919372
:100E10009FCFF0E0E0E09CCFCF93DF930097E9F025
:100E2000FC01329713821282A091D401B091D501B6
:100E3000ED0130E020E01097A1F420813181820F94
:100E4000931F2091D2013091D3012817390709F05F
:100E500061C0F093D301E093D201DF91CF91089567
:100E6000EA01CE17DF07E8F54A815B819E01411553
:100E70005105B1F7E901FB83EA8349915991C40F08
:100E8000D51FEC17FD0761F4808191810296840FD4
:100E9000951FE90199838883828193819B838A834B
:100EA000F0E0E0E012968D919C9113970097B9F5D0
:100EB0002D913C911197CD010296820F931F2091A5
:100EC000D2013091D3012817390739F6309751F5FF
:100ED0001092D5011092D401B093D301A093D20106
:100EE000BCCFD383C28340815181840F951FC81723
:100EF000D90761F44E5F5F4F88819981480F591F70
:100F0000518340838A819B8193838283211531059C
:100F100009F0B0CFF093D501E093D4019ECFFD014D
:100F2000DC01C0CF13821282D7CFB0E0A0E0EBE9A2
:100F3000F7E00C94FD058C01009751F4CB010E9461
:100F400070068C01C801CDB7DEB7E0E10C9419063C
:100F5000FC01E60FF71F9C0122503109E217F3074D
:100F600008F49DC0D901CD91DC911197C617D70720
:100F700098F0C530D10530F3CE0104978617970756
:100F800008F3C61BD70B2297C193D1936D937C9323
:100F9000CF010E940C07D6CF5B01AC1ABD0A4C01F1
:100FA0008C0E9D1EA091D401B091D501512C412CE5
:100FB000F12CE12C109731F58091D2019091D30161
:100FC0008815990509F05CC04616570608F058C008
:100FD0008091000190910101009741F48DB79EB777
:100FE0004091040150910501841B950BE817F90706
:100FF00008F055C0F093D301E093D201F901718359
:101000006083A0CF8D919C91119712966C9012974E
:1010100013967C901397A815B90559F56C0142E019
:10102000C40ED11CCA14DB0420F1AC014A195B09BF
:10103000DA011296159780F06282738251834083A1
:10104000D9016D937C93E114F10471F0D7011396EB
:10105000FC93EE93129776CF22968C0F9D1FF90189
:1010600091838083F301EFCFF093D501E093D40116
:1010700069CF4816590608F42C017D01D3019ACF97
:10108000CB010E9470067C01009749F0AE01B801C7
:101090000E945208C8010E940C07870153CF10E03C
:1010A00000E050CFFB01DC0102C001900D924150E5
:1010B0005040D8F70895FB01DC0101900D9200200B
:0810C000E1F70895F894FFCF59
:1010C8000000D60180000000000045018C00D2001D
:1010D80092010301E100F5000D0A00410042000001
:00000001FF
