:100000000C9442050C946A050C946A050C946A05DC
:100010000C946A050C946A050C946A050C946A05A4
:100020000C946A050C946A050C946A050C946A0594
:100030000C946A050C946A050C946A050C946A0584
:100040000C942C160C946A050C94FA150C94D41587
:100050000C946A050C946A050C946A050C946A0564
:100060000C9476160C946A05000103070F1F3F7F5E
:100070000080C0E0F0F8FCFE00000000003E5B4F96
:100080005B3E3E6B4F6B3E1C3E7C3E1C183C7E3CF8
:10009000181C577D571C1C5E7F5E1C00183C180006
:1000A000FFE7C3E7FF0018241800FFE7DBE7FF3096
:1000B000483A060E2629792926407F050507407F04
:1000C00005253F5A3CE73C5A7F3E1C1C08081C1C77
:1000D0003E7F14227F22145F5F005F5F06097F016D
:1000E0007F006689956A606060606094A2FFA29458
:1000F00008047E040810207E201008082A1C080826
:100100001C2A08081E101010100C1E0C1E0C303873
:100110003E3830060E3E0E06000000000000005F74
:1001200000000007000700147F147F14242A7F2A90
:100130001223130864623649562050000807030052
:10014000001C2241000041221C002A1C7F1C2A089E
:10015000083E080800807030000808080808000001
:1001600060600020100804023E5149453E00427F75
:10017000400072494949462141494D331814127FC4
:100180001027454545393C4A494931412111090764
:100190003649494936464949291E000014000000E5
:1001A00040340000000814224114141414140041B7
:1001B00022140802015909063E415D594E7C121174
:1001C000127C7F494949363E414141227F414141AC
:1001D0003E7F494949417F090909013E4141517327
:1001E0007F0808087F00417F41002040413F017F98
:1001F000081422417F404040407F021C027F7F0460
:1002000008107F3E4141413E7F090909063E4151A8
:10021000215E7F09192946264949493203017F0198
:10022000033F4040403F1F2040201F3F4038403F99
:10023000631408146303047804036159494D4300AF
:100240007F4141410204081020004141417F0402E6
:10025000010204404040404000030708002054547D
:1002600078407F284444383844444428384444285B
:100270007F385454541800087E090218A4A49C78AE
:100280007F0804047800447D40002040403D007F0A
:100290001028440000417F40007C047804787C08EA
:1002A0000404783844444438FC18242418182424BE
:1002B00018FC7C08040408485454542404043F44A3
:1002C000243C4040207C1C2040201C3C4030403CD2
:1002D00044281028444C9090907C4464544C440032
:1002E0000836410000007700000041360800020196
:1002F0000204023C2623263C1EA1A161123A404082
:10030000207A3854545559215555794122545478FE
:1003100042215554784020545579400C1E52721297
:100320003955555559395454545939555454580020
:1003300000457C410002457D420001457C407D1224
:1003400011127DF0282528F07C5455450020545486
:100350007C547C0A097F4932494949323A44444431
:100360003A324A4848303A4141217A3A424020786C
:10037000009DA0A07D3D4242423D3D4040403D3C6D
:1003800024FF2424487E4943662B2FFC2F2BFF0992
:1003900029F620C0887E0903205454794100004486
:1003A0007D413048484A32384040227A007A0A0A71
:1003B000727D0D19317D2629292F282629292926E4
:1003C00030484D4020380808080808080808382F29
:1003D00010C8ACBA2F102834FA00007B00000814B3
:1003E0002A142222142A14085500550055AA55AA89
:1003F00055AAFF55FF55FF000000FF00101010FF29
:1004000000141414FF001010FF00FF1010F010F083
:10041000141414FC001414F700FF0000FF00FF1474
:1004200014F404FC141417101F10101F101F1414C0
:10043000141F00101010F0000000001F101010100A
:100440001F10101010F010000000FF1010101010FE
:1004500010101010FF10000000FF140000FF00FF3C
:1004600000001F10170000FC04F4141417101714D8
:1004700014F404F40000FF00F714141414141414FA
:10048000F700F7141414171410101F101F1414146D
:10049000F4141010F010F000001F101F0000001FD7
:1004A00014000000FC140000F010F01010FF10FF0A
:1004B000141414FF141010101F00000000F010FF9F
:1004C000FFFFFFFFF0F0F0F0F0FFFFFF0000000083
:1004D00000FFFF0F0F0F0F0F3844443844FC4A4A07
:1004E0004A347E02020606027E027E0263554941BC
:1004F000633844443C04407E201E2006027E0202F3
:1005000099A5E7A5991C2A492A1C4C7201724C3006
:100510004A4D4D303048784830BC625A463D3E49DD
:100520004949007E0101017E2A2A2A2A2A44445F81
:10053000444440514A444040444A51400000FF0175
:1005400003E080FF000008086B6B08361236243683
:10055000060F090F060000181800000010100030E8
:1005600040FF0101001F01011E00191D1712003C70
:100570003C3C3C00000000000000000800020100BC
:10058000000304070000000000000000DB40A4A6F8
:100590002EAF2000A1C8D300408DAED580A80000AA
:1005A000600000000000000000000000000000E00B
:1005B0000000000000000000000000000001E0005A
:1005C00000000000000000000000000001F000003A
:1005D000000000000000000000000003F000000028
:1005E0000000000000000000000007F00000000014
:1005F00000000000000000000007F80000000000FC
:1006000000000000000000000FF800000003C00020
:100610007E000001E0007F0FF800000003C000FE34
:10062000000001E000FFEFF800000003C000FE0042
:100630000001E000FFFFF800000003C000F0000030
:10064000000F007FFE7FC0000003C000F00000002C
:100650000F003FFE7FF83FF1FBCFFCFEF3BC3DEF08
:10066000E01FFE7FFF7FFBFFDFFEFEFFBC3DEFE0F4
:100670001FC6FFFF7FFBFFDFFEFEFFBC3DEFE00F6D
:10068000E3C7FE787BC3DE1EF0FFBC3DEF0007FF33
:1006900087FC787BC3DE1EF0F83C3DEF0001FFFFD6
:1006A000F0007BC3C01EF0F03C3DEF0001F37FE0A3
:1006B0003FFBC3CFFEF0F03C3DEF0003E33F807F04
:1006C000FBC3DFFEF0F03C3DEF0007E73C00787B2A
:1006D000C3DE1EF0F03C3DEF0007FFBE00787BC399
:1006E000DE1EF0F03C3DEF0007FFFE00787BC3DE2E
:1006F0001EF0F03C3DEF000FFFFE007FFBFFDFFE32
:10070000F0F03FFDEFE00FFFFF007FFBFFDFFEF0AB
:10071000F03FFDEFE00FF9FF003E79F9CF9EF0F0DA
:100720001F3DE7E01FF1FF00000000000000000097
:100730000000001F80FF007FFFFFFFFFFFFFFFFFA4
:10074000FFE01C007F007FFFFFFFFEB46D888D1867
:10075000E000001F007FFFFFFFFE95AD7DB577E055
:1007600000000F007FFFFFFFFEA5AD9D8D19E0008B
:100770000006007FFFFFFFFEB5ADEDB57EE0000097
:100780000000000180000000000000000000038065
:1007900000000000000000000007C0000000000092
:1007A0000000000007C00000000000000000000F73
:1007B000C00000000000000000001FE0000000007A
:1007C00000000000001FE00000000000000000002A
:1007D0003FE00000000000000000003FF0000000CB
:1007E0000000000000007FF0000000000000001F7B
:1007F000F87FF0000000000000003FFE7FF00000E6
:1008000000000000003FFF7FF0000000000000003B
:100810001FFFFBE0000000000000000FFFF9FFC019
:100820000000000000000FFFF9FFF80000000000CA
:100830000007FFF1FFFF00000000000003FC73FF52
:10084000FF80000000000001FE3FFFFF800000006D
:10085000000000FF1E0FFF000000000000007FFEF0
:100860001FFC000000000000003FFFFFF800000038
:10087000000000000FDFFFE0000000000000001F8C
:1008800019FFC0000000000000003F3CFF00000016
:1008900000000000007E7CF8000000000000000066
:1008A0007FFE7C0000000000000000FFFFFC000055
:1008B000000000000000FFFFFE000000000000003C
:1008C00000FFFFFE0000000000000001FFEFFE003F
:1008D00000000000000001FFCFFE0000000000004B
:1008E0000003FF07FE0000000000000003FC07FEFD
:1008F0000000000000000003F003FE000000000004
:100900000000018000FE0000000000000000000068
:100910007E000000000000000000003E000000001B
:100920000000000000000C00000000000007800034
:10093000FC000003C0000000078001FC000003C0B1
:10094000000000078001FC000003C00000000780D9
:1009500001E00000001E000000078001E000000030
:100960001E007FE3F79FF9FDE7787BDFC0FFF7FF0D
:10097000BFFDFDFF787BDFC0FFF7FFBFFDFDFF7808
:100980007BDFC0F0F787BC3DE1FF787BDE00F0F74E
:1009900087BC3DE1F0787BDE0000F787803DE1E039
:1009A000787BDE007FF7879FFDE1E0787BDE00FF4C
:1009B000F787BFFDE1E0787BDE00F0F787BC3DE123
:1009C000E0787BDE00F0F787BC3DE1E0787BDE007D
:1009D000F0F787BC3DE1E0787BDE00FFF7FFBFFD6D
:1009E000E1E07FFBDFC0FFF7FFBFFDE1E07FFBDF62
:1009F000C07CF3F39F3DE1E03E7BCFC000000000F0
:100A000000000000000000FFFFFFFFFFFFFFFFFFEF
:100A1000FFC0FFFFFFFFFD68DB111A31C0FFFFFFC2
:100A2000FFFD2B5AFB6AEFC0FFFFFFFFFD4B5B3B57
:100A30001A33C0FFFFFFFFFD6B5BDB6AFDC02200C6
:100A4000FF210000000000250028002B000000000E
:100A500000240027002A00040404040404040402FF
:100A6000020202020203030303030301020408104B
:100A70002040800102040810200102040810200018
:100A800095177C1B11241FBECFEFD8E0DEBFCDBF72
:100A900023E0A2E8B1E001C01D92A333B207E1F761
:100AA00011E0A0E0B1E0E8E8FCE302C005900D929F
:100AB000A238B107D9F715E0C1E4D5E004C0219709
:100AC000FE010E94331CC034D107C9F70E941818D8
:100AD0000C94371E0C94000090E0FC01E559F54F92
:100AE0002491895A954FFC018491882399F090E0D4
:100AF000880F991FFC01E35BF54FA591B491FC01B0
:100B0000ED5BF54F859194918FB7F894EC91E22BC2
:100B1000EC938FBF0895089508950895AF92BF9202
:100B2000CF92DF92EF92FF920F931F93CF93DF93B9
:100B30006C017B018B01040F151FEB015E01AE18E8
:100B4000BF08C017D10759F06991D601ED91FC910A
:100B50000190F081E02DC6010995892B79F7C50137
:100B6000DF91CF911F910F91FF90EF90DF90CF9089
:100B7000BF90AF900895FC01538D448D252F30E038
:100B8000842F90E0821B930B541710F0CF9608959A
:100B900001970895FC01918D828D981761F0A28DC7
:100BA000AE0FBF2FB11D5D968C91928D9F5F9F738D
:100BB000928F90E008958FEF9FEF0895FC01918D43
:100BC000828D981731F0828DE80FF11D858D90E0B0
:100BD00008958FEF9FEF08952FB7F89480913E020C
:100BE00090913F02A0914002B09141022FBF8093AB
:100BF0004E0290934F02A0935002B093510286E4AC
:100C000092E00E94DE0597FF26C02FB7F8948091EE
:100C10003E0290913F02A0914002B09141022FBF4D
:100C200040914E0250914F026091500270915102DA
:100C3000841B950BA60BB70B40914A0250914B02B7
:100C400060914C0270914D0284179507A607B70773
:100C5000B0F28FEF9FEF0895CF92DF92EF92FF9265
:100C6000CF930E94EC05FC0197FD4EC08D3291059B
:100C700021F0C0970A9708F040C0C12CD12C760112
:100C8000C0E0E130F105D1F0ED32F105D9F1CF014D
:100C9000C0970A9798F4AAE0B0E0A70196010E94D5
:100CA000C01B6F01FF0FEE08FF08C60ED71EE81E1F
:100CB000F91E80E3C81AD108E108F10886E492E041
:100CC0000E94CA050E94EC05FC01C0970A97C8F271
:100CD000E130F105B1F2CC2341F0F094E094D094EE
:100CE000C094C11CD11CE11CF11CC701B601CF91FD
:100CF000FF90EF90DF90CF90089586E492E00E94FD
:100D0000CA05AFCFC1E0DACFC12CD12C7601EDCF2F
:100D1000FC01918D228D892F90E0805C9F4F821B7A
:100D200091098F739927089586E492E00E948806BE
:100D300021E0892B09F420E0822F089580E090E0E3
:100D4000892B29F00E94940681110C9400000895CB
:100D5000FC01A48DA80FB92FB11DA35ABF4F2C9130
:100D6000848D90E001968F739927848FA689B78927
:100D70002C93A089B1898C91837080648C93938D1E
:100D8000848D981306C00288F389E02D80818F7DC1
:100D900080830895EF92FF920F931F93CF93DF9379
:100DA000EC0181E0888F9B8D8C8D98131AC0E889A7
:100DB000F989808185FF15C09FB7F894EE89FF8976
:100DC0006083E889F98980818370806480839FBF14
:100DD00081E090E0DF91CF911F910F91FF90EF9014
:100DE0000895F62E0B8D10E00F5F1F4F0F73112724
:100DF000E02E8C8D8E110CC00FB607FCFACFE8895F
:100E0000F989808185FFF5CFCE010E94A806F1CF38
:100E1000EB8DEC0FFD2FF11DE35AFF4FF0829FB7D2
:100E2000F8940B8FEA89FB8980818062CFCFCF93C2
:100E3000DF93EC01888D8823B9F0AA89BB89E88902
:100E4000F9898C9185FD03C0808186FD0DC00FB6A8
:100E500007FCF7CF8C9185FFF2CF808185FFEDCF26
:100E6000CE010E94A806E9CFDF91CF91089590E0CE
:100E7000FC01E858FA4F2491FC01E559F54F3491F3
:100E8000FC01E95AF54FE491EE23C9F0222339F031
:100E9000233001F1A8F4213019F1223029F1F0E0DA
:100EA000EE0FFF1FED5BF54FA591B4918FB7F8944E
:100EB000EC91611126C030953E233C938FBF08957D
:100EC0002730A9F02830C9F0243049F780918000FC
:100ED0008F7D03C0809180008F7780938000DFCF6B
:100EE00084B58F7784BDDBCF84B58F7DFBCF8091B8
:100EF000B0008F778093B000D2CF8091B0008F7D0B
:100F0000F9CF3E2BDACF3FB7F8948091330290911E
:100F10003402A0913502B091360226B5A89B05C0D7
:100F20002F3F19F00196A11DB11D3FBFBA2FA92F68
:100F3000982F8827BC01CD01620F711D811D911D65
:100F400042E0660F771F881F991F4A95D1F70895D1
:100F50008F929F92AF92BF92CF92DF92EF92FF92C9
:100F60004B015C010E9483076B017C010E94830797
:100F70006C197D098E099F09683E734081059105B2
:100F8000A8F321E0821A9108A108B10888EEC80EE2
:100F900083E0D81EE11CF11C81149104A104B1046A
:100FA00029F7FF90EF90DF90CF90BF90AF909F9088
:100FB0008F9008952091E801260F3327331F2132A7
:100FC0003105ECF420910C02FC0190E080E024302B
:100FD00069F082E00895A091E8012191AC014853A5
:100FE0005E4FA40FB52FB11D2C930196861798F371
:100FF0008091E801680F6093E80180E0089581E046
:10100000089510920C0281E080930E0210920D025E
:1010100061E082E10E94370761E083E10E943707C7
:10102000E9EBF0E080818E7F808380818D7F8083FB
:1010300088E48093B80085E48093BC000895CF9342
:10104000DF9391E09093C7018823B9F0C091B80075
:10105000D091BA008091BC008A7B8093BC0060E094
:1010600082E10E94370760E083E10E9437070E9417
:101070000108D093BA00C093B800DF91CF910895D2
:10108000E0913D0280913C02E81730F4F0E0EE552B
:10109000FE4F808190E008958FEF9FEF089590912B
:1010A0003D0280913C022FEF3FEF981748F4E92F63
:1010B000F0E0EE55FE4F208130E09F5F90933D02BF
:1010C000C901089580913C0290913D02891B990BC2
:1010D0000895CF92DF92EF92FF920F931F93CF93D9
:1010E000DF937C01CB018A0120914502222389F004
:1010F000EB016B01C40ED51ECC15DD0569F06991BD
:10110000D701ED91FC910190F081E02DC701099587
:10111000F3CF642F0E94DA07C801DF91CF911F91AE
:101120000F91FF90EF90DF90CF900895CF93DF93D2
:101130001F92CDB7DEB76983209145022223F9F0D3
:1011400020914202203258F021E030E0FC0133834C
:10115000228390E080E00F90DF91CF9108958091FD
:101160004302E82FF0E0EE57FE4F998190838F5FA6
:10117000809343028093420281E090E0ECCF61E0F3
:10118000CE0101960E94DA07F7CFCF92DF92EF925D
:10119000FF920F931F93CF93DF93D091420281E090
:1011A000D13208F09CC0C09144020E9483076B01B9
:1011B0007C0180910C0281116CC082E080930C0252
:1011C00081E080930E028FEF80930B021092300229
:1011D000D0932F02A2E8B1E0EFE0F2E080E0D81374
:1011E0008DC01092310280913102CC0FC82BC09378
:1011F000310280910D02813009F084C010920D02FD
:101200000E9483076B017C01809131028093BB00B7
:101210008091C3019091C401A091C501B091C60114
:10122000892B8A2B8B2BA1F00E9483070091C3018D
:101230001091C4012091C5013091C6016C197D093E
:101240008E099F09061717072807390708F442C0B7
:101250008091BC0083FDD8CF85EC8093BC000E94B8
:1012600083076B017C0180910C02823009F44CC031
:1012700080910B028F3F09F469C080910B0280328C
:1012800009F466C080910B02803309F463C084E0E6
:1012900026C08091C3019091C401A091C501B09175
:1012A000C601892B8A2B8B2B09F483CF0E948307DD
:1012B0000091C3011091C4012091C5013091C60174
:1012C0006C197D098E099F0906171707280739072A
:1012D00008F06FCF8091C2010E941F0885E0109234
:1012E00043021092420210924502DF91CF911F916A
:1012F0000F91FF90EF90DF90CF9008959D91919383
:101300008F5F6DCF85EEA9CF8091C3019091C4010D
:10131000A091C501B091C601892B8A2B8B2B09F4B2
:10132000A2CF0E9483070091C3011091C4012091B4
:10133000C5013091C6016C197D098E099F090617F8
:1013400017072807390708F08ECFC4CF80E0C7CF32
:1013500082E0C5CF83E0C3CF0895FC016370668B44
:101360008481958126813781613039F0633029F09D
:1013700091878087338722870895318720879387D5
:10138000828708952F923F924F925F926F927F9241
:101390008F929F92AF92BF92CF92DF92EF92FF9285
:1013A0000F931F93CF93DF93CDB7DEB76A970FB636
:1013B000F894DEBF0FBECDBF9A8F898F7A83698381
:1013C0004A01D22E18870F833701BC2CDC015996B5
:1013D0002D913C915A972115310509F015C11896A8
:1013E0008D919C911997681779070CF0D7C11A96BF
:1013F0008D919C91481759070CF0D0C14C2C512C61
:10140000B6E0CB9E600D711D11247C876B8716168C
:1014100017060CF0C3C1EA2DF0E0FA87E98793E0E4
:10142000EE0FFF1F9A95E1F7F88BEF87CF01840F3E
:10143000951F181619060CF0B1C1A98DBA8D5896D2
:101440008C91811104C0BFEABD1508F4D394A98D15
:10145000BA8DED91FC9111970284F385E02DCD01B9
:101460000995B5E0DB9EC0011124E981FA81FC8376
:10147000EB83312C212C9C0128583F4F388F2F8B28
:101480004A2D50E05E8B4D8BEF89F88DE20DF31DF8
:1014900044919E828D82D12CC12C69817A81620D0A
:1014A000731D7A8B698B842F90E09C8B8B8BE98DDD
:1014B000FA8DA081B18140FF82C0F1E0BF126FC000
:1014C000AF126DC01C96ED91FC912F813885A4015F
:1014D0004C0D5D1D69897A89898D9A8D0995EB89F5
:1014E000FC89F595E7954E2F5FEFC51AD50A6D81FA
:1014F0007E818D899E89680F791F7E836D8398E038
:10150000C916D10481F6AFEF2A1A3A0AEB81FC81A1
:10151000E40DF51DFC83EB83F5E02F16310409F093
:10152000B3CF2F81388526153705B9F0A98DBA8D2F
:10153000ED91FC91B1E0BB1257C0AB1255C069816F
:101540007A816B5F7F4F0088F189E02D830128E06D
:1015500030E0A401898D9A8D0995A98DBA8DED9100
:10156000FC9111970688F789E02DCD016A960FB698
:10157000F894DEBF0FBECDBFDF91CF911F910F91C9
:10158000FF90EF90DF90CF90BF90AF909F908F90A3
:101590007F906F905F904F903F902F9009941E9690
:1015A000ED91FC91EF80F88409851A8592014D81B7
:1015B0005E816B817C81898D9A8D099590CF2F8179
:1015C00038852615370509F48ACF31E0B31207C0F4
:1015D000A31205C01C96ED91FC91930178CF1E9645
:1015E000ED91FC917301E0CF6B857C8564197509E1
:1015F0000684F785E02D73010F8518899201A401F7
:10160000898D9A8D0995A9CFF901349694913297D5
:1016100045915491D91AB7E0DB9E400D511D11241C
:10162000F901259134913C8B2B8BFA012590349054
:10163000FA013296749031963491398B32966490D7
:101640003196449041E04C1518F04A1508F07FC0DF
:10165000662D062C000C770B7C836B83842D042C69
:10166000000C990B9E838D83A98DBA8DED91FC9111
:1016700011970284F385E02DCD010995512CD12CD1
:10168000C12CEA2DF0E0FA87E9872B2D30E03C876A
:101690002B87A401440D511D47FC5A95588F4F8B41
:1016A00069817A81660D711D67FC7A957E876D87E9
:1016B0007989C71608F051CF2C2D30E04D815E811D
:1016C000420F531FA985BA854A9FC0014B9F900DB9
:1016D0005A9F900D1124FC01E80DF91DF88BEF873E
:1016E000852D612C4F89588D420F531F5E8B4D8B7A
:1016F000671408F050C044244394480E877041F4A6
:10170000C1010196EB89FC89E20DF31DD4901C0107
:10171000D7FE19C0A98DBA8DED91FC91662D70E0B0
:10172000B1E0BB1219C0AB1217C02D853E85620F08
:10173000731F0484F585E02D2F8138854D895E89DE
:10174000898D9A8D0995DD0C6394842DD1CF1E82ED
:101750001D821C821B8288CF4B815C81640F751FA8
:10176000AB85BC856A9FC0016B9F900D7A9F900DE1
:10177000112469817A81680F791F0684F785E02D2D
:10178000EF80F88409851A859D014F855889898DD8
:101790009A8D0995D8CF570CC3948ACF6A960FB605
:1017A000F894DEBF0FBECDBFDF91CF911F910F9197
:1017B000FF90EF90DF90CF90BF90AF909F908F9071
:1017C0007F906F905F904F903F902F9008958F92F1
:1017D0009F92AF92CF92EF92FF920F931F93CF936E
:1017E000DF93EC01262F898D9A8D009709F051C067
:1017F0006A30D1F41D861C868D8948E0849F900153
:1018000011248E859F85820F931F9F878E8781E08D
:1018100090E0DF91CF911F910F91FF90EF90CF90CB
:10182000AF909F908F9008956D3089F3CC88AD88EC
:101830008F898823C1F08C859D8536E0C39E800DFD
:10184000911D1124488559854817590764F44E8520
:101850005F851D861C8638E0A39EC0011124840F7D
:10186000951F9F878E87EA88FB88088919894E858E
:101870005F856C857D85CE010E94C2092C898C858F
:101880009D8546E0249F800D911D11249D878C87A6
:10189000BECF6A3069F41D861C86FC013896E4913F
:1018A0002D898E859F85E29F800D911D1124ADCFDE
:1018B0006D3009F4ACCFFC0134963491631708F411
:1018C000A6CF3296E491E61708F4A1CFFC01329638
:1018D00085909490462F431B342F47E0349F800C13
:1018E000911C1124F401329634913196E491332302
:1018F000A9F1EE2399F1CC88F4013596E491AD88F5
:101900004F89442301F10E2E000CFF0BE30FF11D54
:10191000CE9EA001CF9E500D11246C857D85460F73
:10192000571F68857985641775076CF44E855F8548
:101930001D861C86FC013896E491AE9E400D511D1B
:1019400011245F874E87EA88FB88088919894E85AC
:101950005F856C857D85CE010E94C209F4013496B5
:10196000E4912C898C859D85E29F800D911D112429
:101970008DCF6F927F928F929F92AF92BF92CF92B4
:10198000DF92EF92FF920F931F93CF93DF93EC01BF
:101990006B015A0139014801E881F9810284F3851C
:1019A000E02D0995E881F9810288F389E02D87010E
:1019B0009301A501B601CE010995A501480D591D58
:1019C00041505109E881F9810288F389E02D9301A2
:1019D000B601CE010995E881F9810088F189E02DF1
:1019E0009401A501B601CE010995C60CD71CB6011C
:1019F00061507109E881F9810088F189E02D940135
:101A0000A501CE010995E881F9810688F789E02DC5
:101A1000CE01DF91CF911F910F91FF90EF90DF905A
:101A2000CF90BF90AF909F908F907F906F900994D0
:101A30006F927F928F929F92AF92BF92CF92DF92DE
:101A4000EF92FF920F931F93CF93DF935C01EB0113
:101A50006A01490138018701DC01ED91FC916217AF
:101A6000730719F5641675062CF0962D872D3A012B
:101A7000C92ED82E9601261937092F5F3F4F048CA7
:101A8000F58DE02DA301BE01C5010995DF91CF9130
:101A90001F910F91FF90EF90DF90CF90BF90AF908C
:101AA0009F908F907F906F9008954615570591F401
:101AB0002617370724F0892D4B01C22FD82F9E01FE
:101AC000281939092F5F3F4F068CF78DE02DA601AD
:101AD000B401DACF0284F385E02D0995D501ED91AB
:101AE000FC910488F589E02D83019401A601BE01D3
:101AF000C5010995D501ED91FC910688F789E02D86
:101B0000C501DF91CF911F910F91FF90EF90DF9072
:101B1000CF90BF90AF909F908F907F906F900994DF
:101B2000EF92FF920F931F93DC011A960D911C9177
:101B30001B9718962D913C911997ED91FC9100A05F
:101B4000F1A1E02D7B0150E040E070E060E00995FC
:101B50001F910F91FF90EF9008954F925F926F92B7
:101B60007F928F929F92AF92BF92CF92DF92EF922D
:101B7000FF920F931F93CF93DF936C012B015A01B8
:101B800039014801DC01ED91FC910284F385E02DDF
:101B90000995E201640C751CD601ED91FC91C61506
:101BA000D7055CF40088F189E02D87019401A50137
:101BB000BE01C60109952196EFCF0688F789E02D71
:101BC000C601DF91CF911F910F91FF90EF90DF90B1
:101BD000CF90BF90AF909F908F907F906F905F90CD
:101BE0004F9009948F929F92AF92BF92CF92DF92C3
:101BF000EF92FF920F931F93CF93DF93EC015B0162
:101C00004A016901E881F9810284F385E02D099593
:101C100095012C0D3D1D21503109E881F981048881
:101C2000F589E02D78018401A401B501CE01099563
:101C3000E881F9810688F789E02DCE01DF91CF9107
:101C40001F910F91FF90EF90DF90CF90BF90AF90DA
:101C50009F908F9009948F929F92AF92BF92CF9254
:101C6000DF92EF92FF920F931F93CF93DF93EC01DC
:101C70005B014A0169017801E881F9810284F385F9
:101C8000E02D0995C80CD91C860101501109E88185
:101C9000F9810488F589E02D9501A401B501CE01F3
:101CA0000995E881F9810688F789E02DCE01DF9159
:101CB000CF911F910F91FF90EF90DF90CF90BF9049
:101CC000AF909F908F900994EF92FF920F931F9384
:101CD000DC01ED91FC9100A0F1A1E02D09951F918F
:101CE0000F91FF90EF9008950F931F93DC01ED91FA
:101CF000FC91068CF78DE02D09951F910F910895A9
:101D00000F931F93DC01ED91FC91048CF58DE02D78
:101D100009951F910F910895DC01ED91FC910084CC
:101D2000F185E02D09943F924F925F926F927F92DE
:101D30008F929F92AF92BF92CF92DF92EF92FF92DB
:101D40000F931F93CF93DF935C017B014A016901DD
:101D5000390187E0680E711C93E0759467949A9539
:101D6000E1F72B01400E511E10E000E0312CD0E0D5
:101D7000C0E0CE0187709927330C892B59F4FE01FE
:101D800083E0F595E7958A95E1F7E00FF11FE80DFF
:101D9000F91D349037FE0AC021E030E0A701B501FB
:101DA0006C0F7D1F8FEE92E00E948C0E2196CC1658
:101DB000DD06F9F68FEFE81AF80A060D171DE41490
:101DC000F504A9F6DF91CF911F910F91FF90EF904D
:101DD000DF90CF90BF90AF909F908F907F906F904B
:101DE0005F904F903F9008952F923F924F925F9255
:101DF0006F927F928F929F92AF92BF92CF92DF921B
:101E0000EF92FF920F931F93CF93DF9300D000D0F8
:101E100000D0CDB7DEB73C016A013E832D83FC8242
:101E2000EB825801A41AB50AB7FE03C0B194A1947D
:101E3000B1088D809E80861A970A97FE03C0919400
:101E4000819491088A149B045CF0902F812F0D815E
:101E50001E819D838E839C2D8D2D6B01692F782F84
:101E60000C151D055CF09D818E817E836D83692F2D
:101E7000782F902F812F8601C92ED82E1601201A77
:101E8000310A2B012D813E81421A530A57FE03C0AD
:101E9000519441945108710137FE03C03FEFE31A9A
:101EA000F30AF594E7948D819E81861797075CF578
:101EB000A1E0B0E0BA83A983C016D1064CF1D301EA
:101EC000ED91FC910484F585E02D2B813C81A801E6
:101ED0006D817E818A149B041CF04D815E81B80166
:101EE000C3010995E418F508F7FE0AC02D813E816B
:101EF00089819A81280F391F3E832D83E20CF31CC0
:101F00000F5F1F4FD9CF2FEF3FEF3A832983D4CFF5
:101F100026960FB6F894DEBF0FBECDBFDF91CF91EE
:101F20001F910F91FF90EF90DF90CF90BF90AF90F7
:101F30009F908F907F906F905F904F903F902F90E9
:101F40000895EF92FF920F931F93CF93DF93EC01CD
:101F5000EC80FD806E157F050CF070C057FF04C04B
:101F6000240F351F50E040E08E819F81FA01E20F7F
:101F7000F31F8E179F071CF49C01241B350B1216B0
:101F800013060CF05BC0922F842F8695869586955C
:101F90008E9DD0018F9DB00D11246A0F7B1FAF8DD8
:101FA000B8A1A60FB71F477049F188E0841B482FDE
:101FB000682F70E0FB01E059FF4FE491281708F00B
:101FC00063C0621B71092FEF30E002C03595279581
:101FD0006A95E2F7E2230130110539F0B0F10230E1
:101FE000110561F58C91E82702C08C91E82BEC93E8
:101FF000941720F12C813D81A20FB31FE92FE41B20
:10200000E83078F00230110521F58E2F9C919095E3
:102010009C932C813D81A20FB31F88508830B0F76C
:10202000E770EE2359F0F0E0E859FF4FE4910130FA
:102030001105F9F010F10230110519F1DF91CF917E
:102040001F910F91FF90EF900895E0958C91E823F8
:10205000CECF81E00115110509F480E081959E2F16
:102060008C932C813D81A20FB31F98509830C0F7FC
:10207000D7CF8C91E82BEC93E1CFE0958C91E823BE
:10208000FACF8C91E827F7CF0130110509F4ADCFD5
:10209000E0F20230110509F4A5CFAE0DBF1DAECFA1
:1020A0000F931F93CF93DF9377FF04C0260F371F43
:1020B00070E060E0DC011496CD91DC91FB01E20F51
:1020C000F31FCE17DF071CF49E01261B370B1216D9
:1020D00013064CF5FA0157FD3796A3E0F595E79501
:1020E000AA95E1F7EC9FD001ED9FB00DFC9FB00DDC
:1020F00011246A0F7B1FDC015F96ED91FC91E60FC6
:10210000F71F4770552781E090E001C0880F4A957E
:10211000EAF7482F0130110559F0A8F02E0F3F1FA4
:1021200002301105E1F0DF91CF911F910F910895D9
:102130002E0F3F1FE217F307B1F38191DF011197D3
:10214000842B8C93F7CF80952E0F3F1FE217F30758
:1021500051F39191DF01119798239C93F7CFE217E8
:10216000F30709F38191DF01119784278C93F7CF4F
:102170000F931F93FA01DC0156964C91569742300B
:10218000E9F04330A1F1413061F514964D915C9135
:10219000DA01AE1BBF0BFD01E21BF30B77FD0BC099
:1021A000DC0116964D915C916417750724F4AB0120
:1021B000BF010E9450101F910F91089514964D91E8
:1021C0005C91DA01A61BB70BBD0161507109DC01FE
:1021D00016964D915C91DA01AE1BBF0BFD01E21B1F
:1021E000F30B77FDE8CFAF010E94A10FE4CF169665
:1021F0004D915C91DA01A61BB70BBD0161507109CD
:10220000CDCF0F931F93FA01DC0156964C91569750
:102210004230A9F0433091F1413019F514964D91B7
:102220005C91DA01AE1BBF0BFD013197F7FD04C0D5
:10223000AB01BF010E94A10F1F910F910895149649
:102240004D915C91DA01A61BB70BBD01DC0116961E
:102250004D915C91DA01AE1BBF0BFD013197621B02
:10226000730BF7FDE9CFDC0116964D915C91E417F5
:10227000F50714F7AF010E945010DECF16964D916E
:102280005C91DA01A61BB70BBD01621B730BCECFAD
:10229000FC0177FD64C080859185681779070CF093
:1022A0005EC057FD5CC082859385481759070CF0C6
:1022B00056C086898230B1F0833029F1813041F4F3
:1022C00084819581841B950BAB01BC016150710920
:1022D0002130310509F108F443C02230310509F4F9
:1022E00063C0089584819581DC01A61BB70BBD01F5
:1022F0006150710986819781DC01A41BB50BAD018A
:1023000041505109E5CF86819781861B970BBA0111
:10231000AC0141505109DCCFCA0157FD0796A3E03B
:1023200095958795AA95E1F7A481B5818A9F90013B
:102330008B9F300D9A9F300D1124620F731F078CF5
:10234000F0A1E02DE60FF71F4770552721E030E0A0
:1023500001C0220F4A95EAF78081822B808308957D
:10236000CA0157FD079633E0959587953A95E1F7B1
:10237000A481B5818A9F90018B9F300D9A9F300D6B
:102380001124620F731F078CF0A1E02DE60FF71FD9
:102390004770552781E090E001C0880F4A95EAF721
:1023A000809590818923DACFCA0157FD079623E0F3
:1023B000959587952A95E1F7A481B5818A9F90012B
:1023C0008B9F300D9A9F300D1124620F731F078C65
:1023D000F0A1E02DE60FF71F4770552721E030E010
:1023E00001C0220F4A95EAF780818227B7CF08956E
:1023F0008EBD00000DB407FEFDCF8EB50895EF929F
:10240000FF920F931F93CF93DF937C01C62F809190
:102410000C0390910D03009709F459C0209110030B
:1024200031E030934502209344021092430210920F
:102430004202DC01ED91FC910190F081E02D60E021
:1024400009958701EE24E394F12CD1E0C1508091ED
:102450000C0390910D03CF3F91F1B0E2EB16F10424
:10246000D8F00E94C50880910C0390910D03209133
:102470001003D0934502209344021092430210921D
:102480004202DC01ED91FC910190F081E02D60E0D1
:102490000995EE24E394F12C80910C0390910D03A7
:1024A000F8016491DC01ED91FC910190F081E02D47
:1024B0000995BFEFEB1AFB0A0F5F1F4FC7CFDF91E4
:1024C000CF911F910F91FF90EF900C94C508E09170
:1024D0001C03F0911D039081809122038095892334
:1024E00080838701C15008F438C0F801849120919D
:1024F0000A0330910B03232B29F00E94F8110F5F80
:102500001F4FF0CF28E030E040E8E0911803F09151
:10251000190390912003582F5423D9F05081952B03
:102520009083E0911A03F0911B0390815091210355
:10253000952B9083E0911A03F0911B0350819091A9
:102540002103909595239083469521503109E9F612
:10255000D6CF508190959523E3CFDF91CF911F91F6
:102560000F91FF90EF9008951F93CF93DF93EC01AD
:102570008D8D9E8D009721F1162F29A131E030938A
:102580004502209344021092430210924202DC0161
:10259000ED91FC910190F081E02D60E009958D8D29
:1025A0009E8DDC01ED91FC910190F081E02D612F79
:1025B00009958D8D9E8DDF91CF911F910C94C5084B
:1025C000ADA5BEA59C918BA9809589238C938B8DFD
:1025D0009C8D892B31F0862FDF91CF911F910C9428
:1025E000F81128E030E080E8A9A5BAA599A9462FFE
:1025F0004823C1F04C91942B9C93ABA5BCA59C9116
:102600004AA9942B9C93ABA5BCA54C919AA99095F3
:1026100094239C9386952150310931F7DF91CF9116
:102620001F9108954C9190959423E6CF8CBD9DBD4C
:102630000895DF92EF92FF920F931F93CF93DF9352
:1026400080910C0390910D03892B09F498C020917F
:10265000240330912503409126035091270360E025
:1026600074E284EF90E00E94111C2051310941096D
:10267000510956954795379527952093B80065E001
:102680008EE39AE00E94FF116091F30261508FEE99
:1026900092E00E94B4122091F5023091F602C90135
:1026A000079697FD079633E0959587953A95E1F75C
:1026B0002091F3023091F402829F8001839F100DDC
:1026C000929F100D1124C0910E03D0910F038091A1
:1026D0000C0390910D030C0F1D1F009709F48FC080
:1026E0002091100331E03093450220934402109270
:1026F000430210924202DC01ED91FC910190F081C5
:10270000E02D60E40995EE24E394F12CDD24D394CC
:1027100080910C0390910D030C171D0709F446C01E
:10272000B0E2EB16F104D8F00E94C50880910C03CA
:1027300090910D0320911003D09245022093440202
:102740001092430210924202DC01ED91FC91019043
:10275000F081E02D60E40995EE24E394F12C809162
:102760000C0390910D036991DC01ED91FC910190B6
:10277000F081E02D0995BFEFEB1AFB0AC9CF8091DC
:102780000A0390910B03892B31F080912D039091D6
:102790002E030E941613E0911E03F0911F039081F7
:1027A0008091230380958923808369CF0E94C50887
:1027B00080910C0390910D03892B09F461C0209145
:1027C00028033091290340912A0350912B0360E0A4
:1027D00074E284EF90E00E94111C205131094109FC
:1027E000510956954795379527952093B800DF9165
:1027F000CF911F910F91FF90EF90DF900895E0919E
:102800001C03F0911D03808190912203892B80830A
:102810000C171D0769F2899120910A0330910B036F
:10282000232B19F00E94F811F3CF28E030E040E8A4
:10283000E0911803F091190390912003582F54232D
:10284000D9F05081952B9083E0911A03F0911B03EE
:10285000908150912103952B9083E0911A03F09180
:102860001B03508190912103909595239083469569
:1028700021503109E9F6CCCF508190959523E3CFD3
:10288000E0911E03F0911F03808190912303892B17
:102890008083ADCF1F93CF93DF93EC01162F8D8DE7
:1028A0009E8D892BB1F12DA93EA94FA958AD60E0AD
:1028B00074E284EF90E00E94111C2051310941091B
:1028C000510956954795379527952093B80066EAA4
:1028D000111167EACE010E94B4128D8D9E8D892B55
:1028E00041F129AD3AAD4BAD5CAD60E074E284EFEF
:1028F00090E00E94111C205131094109510956955F
:102900004795379527952093B800DF91CF911F9178
:1029100008958B8D9C8D892B21F08EAD9FAD0E94EB
:102920001613EFA5F8A990818CA98095892380833F
:10293000CECFEFA5F8A980819CA9892B8083E5CF14
:10294000089590E080E008952091F5023091F6021C
:10295000C901079697FD079623E0959587952A95D7
:10296000E1F72091F3023091F402829FA001839F4E
:10297000500D929F500D112470E060E080910E0385
:1029800090910F030C94291EFB0101900020E9F7A0
:102990003197AF01461B570BDC01ED91FC91028092
:1029A000F381E02D0994CF93DF93FC01448155819D
:1029B000608171818FEE92E00E948E05EC0166E5E8
:1029C00071E08FEE92E00E94C4148C0F9D1FDF9186
:1029D000CF910895CF93DF93EC018881998100977F
:1029E00011F00E94D51C198218821D821C821B8244
:1029F0001A82DF91CF910895FC0180819181009727
:102A000011F00C94D51C08950E941B1E0F931F9368
:102A1000CF93DF93EC0188819981009759F02A8147
:102A20003B812617370730F081E0DF91CF911F916E
:102A30000F9108958B016F5F7F4F0E945E1D00977D
:102A400059F0998388831B830A832C813D81232B32
:102A500059F7FC011082E8CF80E0E7CFCF92DF92F8
:102A6000EF92FF920F931F93CF93DF93CDB7DEB713
:102A700028970FB6F894DEBF0FBECDBF7C01CB0107
:102A80004AE09E012F5F3F4F6901B9010E948B1BF5
:102A9000F60101900020E9F73197EC19FD09D9F012
:102AA000D70114960D911C910E0F1F1FB801C7017D
:102AB0000E940615882381F0F701208131818481ED
:102AC0009581B601820F931F0E94301ED701159683
:102AD0001C930E93149781E028960FB6F894DEBFEE
:102AE0000FBECDBFDF91CF911F910F91FF90EF905F
:102AF000DF90CF900895EF92FF920F931F93CF93A3
:102B0000DF93EC017B018A01BA010E940615811155
:102B10000BC0CE010E94EA14CE01DF91CF911F912C
:102B20000F91FF90EF9008951D830C83B70188816A
:102B300099810E94301EF0CF85ED8093BC0080917A
:102B4000C3019091C401A091C501B091C60107963F
:102B5000A11DB11D23E0B695A795979587952A9558
:102B6000D1F72091BC0024FD03C010920C020895FF
:102B70004091C3015091C4016091C5017091C6019B
:102B8000452B462B472B69F30097A105B10541F072
:102B900025E32A95F1F700000197A109B109E1CFDA
:102BA0008091C2010C941F081F920F920FB60F92D2
:102BB00011242F933F934F935F936F937F938F9342
:102BC0009F93AF93BF93EF93FF9386E492E00E94AD
:102BD000A806FF91EF91BF91AF919F918F917F9147
:102BE0006F915F914F913F912F910F900FBE0F907A
:102BF0001F9018951F920F920FB60F9211242F93CA
:102C00008F939F93EF93FF93E0915602F0915702B9
:102C10008081E0915C02F0915D0282FD1BC0908199
:102C200080915F028F5F8F7320916002821741F065
:102C3000E0915F02F0E0EA5BFD4F958F80935F02C9
:102C4000FF91EF919F918F912F910F900FBE0F9059
:102C50001F9018958081F4CF1F920F920FB60F929C
:102C600011242F933F938F939F93AF93BF938091A2
:102C70003E0290913F02A0914002B09141023091FA
:102C8000320223E0230F2D3758F50196A11DB11D07
:102C90002093320280933E0290933F02A093400221
:102CA000B09341028091330290913402A091350299
:102CB000B09136020196A11DB11D8093330290930D
:102CC0003402A0933502B0933602BF91AF919F9129
:102CD0008F913F912F910F900FBE0F901F901895DD
:102CE00026E8230F0296A11DB11DD2CF1F920F928D
:102CF0000FB60F9211242F933F934F935F936F93CF
:102D00007F938F939F93AF93BF93EF93FF938091A4
:102D1000B900887F803609F44AC0F0F5883209F49A
:102D2000A7C018F5803109F49BC0B8F4882309F4D2
:102D3000F9C0883009F494C0FF91EF91BF91AF9131
:102D40009F918F917F916F915F914F913F912F91C3
:102D50000F900FBE0F901F901895883109F488C00E
:102D6000803251F780930B0214C0803409F49DC067
:102D700040F48033B9F38833F9F680930B0285EC85
:102D8000B0C0803509F485C0883509F496C0883410
:102D900099F60E949C15D0CF883909F48CC038F57B
:102DA000883729F050F4883611F0803729F683E00F
:102DB00080930C0210920A0257C0883809F47BC035
:102DC000803919F0803809F0B7CF80910A0280323B
:102DD00008F071C0E0910A0281E08E0F80930A0230
:102DE0008091BB00F0E0E651FE4F80833DC0803B08
:102DF00039F0E0F4803A09F479C0883A09F09CCFC0
:102E000084E080930C021092E9011092E801E091B5
:102E10003A02F0913B0209958091E80181110FC0BF
:102E200081E08093E8011092C80109C0803C09F458
:102E3000A6CF883C09F4A3CF883B09F07DCFE09171
:102E4000E90181E08E0F8093E901F0E0E853FE4F45
:102E500080818093BB009091E9018091E80129C0B5
:102E6000809131028093BB0085EC8093BC0064CFDD
:102E70009091300280912F02981758F5E09130021E
:102E800081E08E0F80933002F0E0E15FFD4F8081A2
:102E9000E9CFE091300281E08E0F80933002809183
:102EA000BB00F0E0E15FFD4F8083909130028091A4
:102EB0002F029817C8F285E8D8CFE091300281E060
:102EC0008E0F809330028091BB00F0E0E15FFD4FF8
:102ED000808380910E0281115CCF81E080930D028E
:102EE00084EA8093BC0010920C0226CF85EC80937C
:102EF000BC0010920C0280910A02803230F4E09102
:102F00000A02F0E0E651FE4F108260910A0270E082
:102F1000E0913802F09139028AEE91E00995109221
:102F20000A020ACF10920B0234CFE6E4F2E01382D9
:102F3000128248EE53E060E070E04483558366837C
:102F400077838AE091E09183808385EC90E0958798
:102F5000848784EC90E09787868780EC90E0918B63
:102F6000808B81EC90E0938B828B82EC90E0958B50
:102F7000848B86EC90E0978B868B118E128E138E4D
:102F8000148EA3EEB2E013961C921E921297149622
:102F90004D935D936D937C9317978CE191E011961F
:102FA0009C938E93EFEEF2E01382128220E830E0E1
:102FB0003583248380E490E097838683318720875C
:102FC00093878287168A158614861786168681E06F
:102FD000858B848B2FEF3FEF338B228B318B208BB4
:102FE000878B108E128E118E8EE291E091838083FA
:102FF000148E138EB68FA58F10A2178E8FEF84A319
:1030000085A386A387A380A780E89AE1A6E0B0E025
:1030100085AB96ABA7ABB0AF80EA96E8A1E0B0E095
:1030200081AF92AFA3AFB4AF80E586AF17AE08957E
:10303000CF93DF93CDB7DEB72C970FB6F894DEBFF2
:103040000FBECDBF789484B5826084BD84B58160A5
:1030500084BD85B5826085BD85B5816085BD809163
:103060006E00816080936E001092810080918100DB
:1030700082608093810080918100816080938100D3
:10308000809180008160809380008091B100846095
:103090008093B1008091B00081608093B0008091F6
:1030A0007A00846080937A0080917A0082608093B5
:1030B0007A0080917A00816080937A0080917A0012
:1030C000806880937A001092C1008BE00E946C05AA
:1030D000E0915602F091570282E08083E091520223
:1030E000F09153021082E0915402F09155028FEC5E
:1030F000808310925E02E0915A02F0915B0286E0BA
:103100008083E0915802F091590280818061808330
:10311000E0915802F0915902808188608083E091AB
:103120005802F0915902808180688083E0915802B2
:10313000F091590280818F7D808380910E03909160
:103140000F03892B11F10E94A4142091F5023091F4
:10315000F6028091F3029091F402213231050CF0D5
:10316000BFC0B9016052710977FF02C06F5F7F4F26
:10317000759567958357910997FD019600E210E0D8
:1031800023E730E04EE955E0BEC02091F5023091D2
:10319000F602C901079697FD0796B3E095958795C6
:1031A000BA95E1F72091F3023091F402AC01429F0D
:1031B000C001439F900D529F900D11240E94391C15
:1031C00090930F0380930E03892B09F0BCCF0E94CC
:1031D000A4140E94A41481E0809303038093040349
:1031E00081E090E0909302038093010390930003A9
:1031F0008093FF028AE090E09093FC028093FB02B0
:103200001092FE021092FD0200E010E086E492E0CF
:103210000E948806181619060CF056C086E492E043
:103220000E94CA05813409F048C269E571E086E46C
:1032300092E00E94C41466E571E086E492E00E9488
:10324000C4140E942C066B010E94A4141A821982D5
:103250001C821B821E821D8247E050E065E671E001
:10326000CE0101960E947B1518861F821A86198648
:103270001C861B8669817A816115710531F04D814B
:103280005E81CE0107960E947B15B601CE0107969E
:103290000E942E15811104C0CE0107960E94EA14E7
:1032A000CE0107960E94D314CE0107960E94FC140B
:1032B000CE0101960E94FC140E94191364E670E08E
:1032C00080E090E00E94A8070115110509F49ECF47
:1032D0000E949406882309F499CF0E94000096CF9B
:1032E000B9016054710977FF02C06F5F7F4F759518
:1032F00067958255910997FD019600E410E022E55B
:1033000030E04EE757E0959587950E94930E82E056
:103310008093110380910C0390910D03892B09F484
:10332000DEC08CE38093100310923D0210923C02A9
:1033300010924302109242020E9401088CE895E02C
:1033400090933B0280933A028DE895E09093390286
:10335000809338028091170387FD1DC00E946C0581
:1033600061E0809117030E94370761E070E080E020
:1033700090E00E94A80760E0809117030E94370741
:103380006AE070E080E090E00E94A80761E0809130
:1033900017030E94370780910C0390910D03892B2E
:1033A00009F454C120912403309125034091260350
:1033B0005091270360E074E284EF90E00E94111CBA
:1033C000205131094109510956954795379527955F
:1033D0002093B80064E08AE995E00E94FF116091B3
:1033E000F50261508FEE92E00E94B41264E086E92B
:1033F00095E00E94FF118091110364E1813009F48E
:1034000060E18FEE92E00E94B41264E082E995E000
:103410000E94FF118FE880932C038091F30290911A
:10342000F4028038910509F02AC18091F50290914B
:10343000F6028034910509F032C180911103813088
:1034400009F41BC18FEC80932C0312E16AED8FEE1F
:1034500092E00E94B412612F8FEE92E00E94B412AB
:1034600061E88FEE92E00E94B41260912C038FEE1F
:1034700092E00E94B41269ED8FEE92E00E94B412C5
:103480008091110361EF813009F462E28FEE92E0E6
:103490000E94B41266E08CE895E00E94FF118091D2
:1034A0000C0390910D03892B09F4FDC02091280392
:1034B0003091290340912A0350912B0360E074E27C
:1034C00084EF90E00E94111C2051310941095109FB
:1034D00056954795379527952093B80078CE8091DB
:1034E00015030E946C05809116030E946C05809163
:1034F0001503082E000C990BFC01E95AF54FE491D5
:10350000F0E0EE0FFF1FED5BF54F25913491309306
:103510001D0320931C03FC01E559F54FE491E09352
:10352000220380911603082E000C990BFC01E95A26
:10353000F54FE491F0E0EE0FFF1FED5BF54FA59125
:10354000B491B0931F03A0931E03FC01E559F54FFE
:10355000E491E09323038C91E82BEC9380910A0390
:1035600090910B03892B89F11FB7F8948091370252
:10357000811124C0E1E6FAE08491E5E7FAE0949154
:10358000E82FF0E0EE0FFF1FE35BF54FA591B4913C
:10359000EC91E92321F461E08AE00E9437078AE098
:1035A0000E946C058CB580618CBD8CB580648CBD2F
:1035B0008DE00E946C058BE00E946C0580913702C3
:1035C0008F5F809337021FBFC5CE809113030E9487
:1035D0006C05809114030E946C0580911303082EE2
:1035E000000C990BFC01E95AF54FE491F0E0EE0F65
:1035F000FF1FED5BF54F2591349130931903209314
:103600001803FC01E559F54FE491E0932003809104
:103610001403082E000C990BFC01E95AF54FE491B4
:10362000F0E0EE0FFF1FED5BF54FA591B491B09365
:103630001B03A0931A03FC01E559F54FE491E093B5
:1036400021038C91E095E823EC9384CE80910A03CA
:1036500090910B03892B31F080912D0390912E03D3
:103660000E941613E0911E03F0911F039081809138
:103670002303809589238083ADCE8FE9E4CE803605
:10368000910569F48091F5029091F602409739F422
:1036900080911103813029F08FEA80932C0312E08E
:1036A000D5CE80E1FACFE0911E03F0911F03808117
:1036B00090912303892B80838ACD823409F004CE34
:1036C0006DE671E086E492E00E94C41466E571E064
:1036D00086E492E00E94C4140E942C066B010E94B2
:1036E000A4141A8219821C821B821E821D8247E04A
:1036F00050E069E771E0B4CD8EE291E09093F00282
:103700008093EF0280910E0390910F03009711F0C8
:103710000C94D51C0895BB274A3031F4992322F428
:10372000BDE2909581959F4F0C94971BBB27FB01A1
:103730005527AA27880F991FAA1FA41710F0A41BAA
:1037400083955051B9F7A05DAA3308F0A95DA19304
:10375000009779F7B111B1931192CB010C94B01B82
:10376000DC01FC01672F71917723E1F7329704C0E8
:103770007C916D9370836291AE17BF07C8F3089573
:103780000E94021CA59F900DB49F900DA49F800DD8
:10379000911D112408952F923F924F925F926F9244
:1037A0007F928F929F92AF92BF92CF92DF92EF92D1
:1037B000FF920F931F93CF93DF93CDB7DEB7CA1B52
:1037C000DB0B0FB6F894DEBF0FBECDBF09942A887D
:1037D000398848885F846E847D848C849B84AA8425
:1037E000B984C884DF80EE80FD800C811B81AA81B2
:1037F000B981CE0FD11D0FB6F894DEBF0FBECDBF7D
:10380000ED010895A29FB001B39FC001A39F700D69
:10381000811D1124911DB29F700D811D1124911DD8
:103820000895A1E21A2EAA1BBB1BFD010DC0AA1F01
:10383000BB1FEE1FFF1FA217B307E407F50720F019
:10384000A21BB30BE40BF50B661F771F881F991F94
:103850001A9469F760957095809590959B01AC01DD
:10386000BD01CF010895EE0FFF1F0590F491E02DEB
:1038700009940F931F93CF93DF938230910510F437
:1038800082E090E0E0913103F091320330E020E0FB
:10389000B0E0A0E0309799F42115310509F44AC051
:1038A000281B390B24303105D8F58A819B8161159D
:1038B000710589F1FB0193838283FE0111C0408170
:1038C00051810281138148175907E0F048175907C1
:1038D00099F4109761F012960C93129713961C931B
:1038E0003296CF01DF91CF911F910F9108950093F0
:1038F000310310933203F4CF2115310551F04217F3
:10390000530738F0A901DB019A01BD01DF01F8017D
:10391000C1CFEF01F9CF9093320380933103CDCF24
:10392000FE01E20FF31F81939193225031093983F5
:103930002883D7CF20912F0330913003232B41F4DC
:1039400020910201309103013093300320932F0323
:1039500020910001309101012115310541F42DB76D
:103960003EB74091040150910501241B350BE091B5
:103970002F03F0913003E217F307A0F42E1B3F0B47
:103980002817390778F0AC014E5F5F4F24173507D1
:1039900048F04E0F5F1F5093300340932F038193E5
:1039A00091939FCFF0E0E0E09CCFCF93DF9300971F
:1039B000E9F0FC01329713821282A0913103B09199
:1039C0003203ED0130E020E01097A1F42081318135
:1039D000820F931F20912F0330913003281739074E
:1039E00009F061C0F0933003E0932F03DF91CF9192
:1039F0000895EA01CE17DF07E8F54A815B819E0151
:103A000041155105B1F7E901FB83EA8349915991C9
:103A1000C40FD51FEC17FD0761F4808191810296D8
:103A2000840F951FE90199838883828193819B8309
:103A30008A83F0E0E0E012968D919C9113970097B5
:103A4000B9F52D913C911197CD010296820F931FEC
:103A500020912F03309130032817390739F630971A
:103A600051F51092320310923103B0933003A093BA
:103A70002F03BCCFD383C28340815181840F951F14
:103A8000C817D90761F44E5F5F4F88819981480F4D
:103A9000591F518340838A819B819383828321159F
:103AA000310509F0B0CFF0933203E09331039ECF9C
:103AB000FD01DC01C0CF13821282D7CFB0E0A0E0BD
:103AC000E4E6FDE10C94CD1B8C01009751F4CB0191
:103AD0000E94391C8C01C801CDB7DEB7E0E10C941F
:103AE000E91BFC01E60FF71F9C0122503109E21788
:103AF000F30708F49DC0D901CD91DC911197C61749
:103B0000D70798F0C530D10530F3CE01049786175A
:103B1000970708F3C61BD70B2297C193D1936D93D8
:103B20007C93CF010E94D51CD6CF5B01AC1ABD0A95
:103B30004C018C0E9D1EA0913103B0913203512C8B
:103B4000412CF12CE12C109731F580912F039091AD
:103B500030038815990509F05CC04616570608F031
:103B600058C08091000190910101009741F48DB7F8
:103B70009EB74091040150910501841B950BE817F5
:103B8000F90708F055C0F0933003E0932F03F901D3
:103B900071836083A0CF8D919C91119712966C9048
:103BA000129713967C901397A815B90559F56C01D7
:103BB00042E0C40ED11CCA14DB0420F1AC014A1946
:103BC0005B09DA011296159780F062827382518345
:103BD0004083D9016D937C93E114F10471F0D70116
:103BE0001396FC93EE93129776CF22968C0F9D1F1F
:103BF000F90191838083F301EFCFF0933203E093D7
:103C0000310369CF4816590608F42C017D01D30110
:103C10009ACFCB010E94391C7C01009749F0AE017C
:103C2000B8010E94201EC8010E94D51C870153CFF5
:103C300010E000E050CF81E090E0F8940C94371E43
:103C4000FB01DC0102C001900D9241505040D8F7B9
:103C50000895DC0101C06D9341505040E0F7089594
:103C6000FB01DC0101900D920020E1F7089515E0C1
:103C7000C1E4D5E004C0FE010E94331C2196C23489
:083C8000D107C9F7F894FFCF4A
:103C880000003303800000000000CA068E05BB0553
:103C980017078806CA05DE050000000096086908AF
:103CA800A1148B0562084F08400800000000E70BCC
:103CB8008E05A114A01448118B058C0E640E800E7D
:103CC800740EF40E8B05AD094A14B8100111AD0D30
:103CD800900D180DB90C0D0A00456E74726F7520A1
:103CE8006E6F204100506F7274313A2000456E7437
:103CF800726F75206E6F204200506F7274323A20D6
:023D08000000B9
:00000001FF
