:100000000C945E000C9486000C9486000C94860080
:100010000C9486000C9486000C9486000C94860048
:100020000C9486000C9486000C9486000C94860038
:100030000C9486000C9486000C9486000C94860028
:100040000C945C060C9486000C942A060C9404060E
:100050000C9486000C9486000C9486000C94860008
:100060000C9486000C948600000000080002010039
:100070000003040700000000000000000000000072
:10008000250028002B0000000000240027002A0083
:10009000040404040404040402020202020203032E
:1000A0000303030301020408102040800102040836
:1000B0001020010204081020A606C60811241FBE45
:1000C000CFEFD8E0DEBFCDBF11E0A0E0B1E0EEEAB7
:1000D000F8E102C005900D92A43EB107D9F722E0E5
:1000E000A4EEB1E001C01D92AE39B207E1F710E015
:1000F000CDE5D0E004C02197FE010E94410ACC3535
:10010000D107C9F70E94DE060C944A0C0C9400003B
:100110000895AF92BF92CF92DF92EF92FF920F932A
:100120001F93CF93DF936C017B018B01040F151F8D
:10013000EB015E01AE18BF08C017D10759F06991F5
:10014000D601ED91FC910190F081E02DC601099559
:10015000892B79F7C501DF91CF911F910F91FF9006
:10016000EF90DF90CF90BF90AF900895FC01538D3A
:10017000448D252F30E0842F90E0821B930B541781
:1001800010F0CF96089501970895FC01918D828D0E
:10019000981761F0A28DAE0FBF2FB11D5D968C91A7
:1001A000928D9F5F9F73928F90E008958FEF9FEFE6
:1001B00008952FB7F8948091ED019091EE01A091F0
:1001C000EF01B091F0012FBF8093F9019093FA01F4
:1001D000A093FB01B093FC0181EF91E00E94C50068
:1001E00097FF26C02FB7F8948091ED019091EE0112
:1001F000A091EF01B091F0012FBF4091F901509112
:10020000FA016091FB017091FC01841B950BA60B18
:10021000B70B4091F5015091F6016091F701709193
:10022000F80184179507A607B707B0F28FEF9FEF85
:100230000895FC01918D828D981731F0828DE80F21
:10024000F11D858D90E008958FEF9FEF0895FC01DB
:10025000918D228D892F90E0805C9F4F821B9109A8
:100260008F739927089581EF91E00E94270121E083
:10027000892B09F420E0822F089580E090E0892BFB
:1002800029F00E94330181110C9400000895FC01B3
:10029000A48DA80FB92FB11DA35ABF4F2C91848DE7
:1002A00090E001968F739927848FA689B7892C9344
:1002B000A089B1898C91837080648C93938D848D97
:1002C000981306C00288F389E02D80818F7D80839A
:1002D0000895EF92FF920F931F93CF93DF93EC015A
:1002E00081E0888F9B8D8C8D98131AC0E889F989DD
:1002F000808185FF15C09FB7F894EE89FF896083E0
:10030000E889F98980818370806480839FBF81E060
:1003100090E0DF91CF911F910F91FF90EF900895A2
:10032000F62E0B8D10E00F5F1F4F0F731127E02E7D
:100330008C8D8E110CC00FB607FCFACFE889F989B5
:10034000808185FFF5CFCE010E944701F1CFEB8D73
:10035000EC0FFD2FF11DE35AFF4FF0829FB7F89489
:100360000B8FEA89FB8980818062CFCFCF93DF93A7
:10037000EC01888D8823B9F0AA89BB89E889F989BD
:100380008C9185FD03C0808186FD0DC00FB607FCF2
:10039000F7CF8C9185FFF2CF808185FFEDCFCE0125
:1003A0000E944701E9CFDF91CF91089590E0FC01D1
:1003B000E859FF4F2491FC01EC55FF4F3491FC01AB
:1003C000E057FF4FE491EE23C9F0222339F02330A8
:1003D00001F1A8F4213019F1223029F1F0E0EE0FFB
:1003E000FF1FE458FF4FA591B4918FB7F894EC919B
:1003F000611126C030953E233C938FBF089527306E
:10040000A9F02830C9F0243049F7809180008F7D11
:1004100003C0809180008F7780938000DFCF84B508
:100420008F7784BDDBCF84B58F7DFBCF8091B0000B
:100430008F778093B000D2CF8091B0008F7DF9CFBD
:100440003E2BDACF3FB7F8948091E7019091E80115
:10045000A091E901B091EA0126B5A89B05C02F3F04
:1004600019F00196A11DB11D3FBFBA2FA92F982FDA
:100470008827BC01CD01620F711D811D911D42E0D5
:10048000660F771F881F991F4A95D1F708958F929D
:100490009F92AF92BF92CF92DF92EF92FF926B0149
:1004A0007C010E9422024B015C01C114D104E104D1
:1004B000F104B9F00E942202681979098A099B099E
:1004C000683E73408105910580F321E0C21AD1088E
:1004D000E108F10888EE880E83E0981EA11CB11C8B
:1004E000E4CFFF90EF90DF90CF90BF90AF909F90C0
:1004F0008F900895BF92CF92DF92EF92FF920F9369
:100500001F93CF93DF938B01D0E0C0E06C01990F74
:10051000EE08FF0895E0B92E61E08B2D0E94D60110
:10052000B3948BE0B812F8CFC701B6010E9447021E
:1005300085E0B82E60E08B2D0E94D601B3948BE04D
:10054000B812F8CFC701B6010E94470221960C17D6
:100550001D0701F7DF91CF911F910F91FF90EF9051
:10056000DF90CF90BF90089542E050E06CE171E0E1
:1005700081EF91E00C948900CF93DF93FC0101900F
:100580000020E9F73197AF01481B590BBC0181EFFF
:1005900091E00E948900EC010E94B4028C0F9D1F23
:1005A000DF91CF910895CF93C82F8FE191E00E9402
:1005B000BC0263E070E088EE93E00E947A02C09390
:1005C000EB018C2FCF91089587E08093EB0188E3B6
:1005D00091E00E94BC0265E070E08CE291E00C9436
:1005E0007A02EF92FF920F931F93CF93DF930091C4
:1005F000940210919502FC01C081D181F801819192
:100600008F018823B9F0082E000C990B0E94290C49
:100610007C018991082E000C990B0E94290CE81688
:10062000F90661F380E0DF91CF911F910F91FF9068
:10063000EF90089581E0F7CF2091980230919902D0
:10064000809192029091930228173907F1F48091DA
:1006500094029091950260918E0270918F020097A2
:10066000D1F061157105A1F4232BC1F0FC0180814B
:1006700090E008C0232B91F0FB01808190E09195E0
:100680008195910921E0892B09F020E0822F0895BE
:100690000E943A0CF7CF6115710561F721E0F6CFA2
:1006A0000F931F93CF93DF93EC018881998100977B
:1006B00059F02A813B812617370730F081E0DF911E
:1006C000CF911F910F9108958B016F5F7F4F0E9413
:1006D0006C0B009759F0998388831B830A832C81C4
:1006E0003D81232B59F7FC011082E8CF80E0E7CF52
:1006F000EF92FF920F931F93CF93DF934115510514
:10070000B1F07B01EC010C811D81040F151FB801B4
:100710000E945003882361F0288139818C819D815A
:10072000B701820F931F0E94430C1D830C8381E04D
:10073000DF91CF911F910F91FF90EF900895CF938C
:10074000DF93EC0188819981009711F00E94E30A00
:10075000198218821D821C821B821A82DF91CF911E
:100760000895EF92FF920F931F93CF93DF93CDB72E
:10077000DEB728970FB6F894DEBF0FBECDBF7C0161
:10078000CB014AE08E010F5F1F4FB8010E94720932
:10079000F80101900020E9F73197AF01401B510BA0
:1007A000B801C7010E947803811103C0C7010E94EC
:1007B0009F03C70128960FB6F894DEBF0FBECDBFCA
:1007C000DF91CF911F910F91FF90EF900895EF92DD
:1007D000FF920F931F93CF93DF93EC017B018A016C
:1007E000BA010E94500381110BC0CE010E949F03E9
:1007F000CE01DF91CF911F910F91FF90EF9008955F
:100800001D830C83B701888199810E94430CF0CF2E
:10081000CF93DF93EC01FB018617970749F06081C6
:1008200071816115710541F0448155810E94E70392
:10083000CE01DF91CF9108950E949F03F9CFFC0173
:10084000118210821382128215821482FB010190A0
:100850000020E9F73197AF01461B570B0C94E703D3
:10086000FC0180819181009711F00C94E30A0895B6
:100870000F931F93CF93DF93CDB7DEB72C970FB6AF
:10088000F894DEBF0FBECDBF8C0163E471E0CE01F2
:1008900001960E941F0418861F821A8619861C86DC
:1008A0001B86BE016F5F7F4FCE0107960E94080432
:1008B000B801CE0107960E94B1038C0146E050E0DA
:1008C00064E771E00E947803811103C0C8010E94AF
:1008D0009F03F801448155816081718181EF91E02E
:1008E0000E9489000E94B402CE0107960E94300443
:1008F000CE0101960E9430042C960FB6F894DEBF0C
:100900000FBECDBFDF91CF911F910F910895CF936F
:10091000DF93CDB7DEB728970FB6F894DEBF0FBED2
:10092000CDBF80E591E00E94BC0281EF91E00E9482
:100930002701892BD1F381EF91E00E942701892BB8
:10094000C1F16EE171E0CE0101960E941F040E9488
:10095000D90097FD0CC08F83188641E050E0BE019E
:10096000695F7F4FCE0101960E947803F0CF80919E
:10097000940290919502009739F169817A8161150D
:10098000710501F140919602509197022D813E81AF
:1009900042175307B8F00E94430C8D819E819093BB
:1009A0009902809398021E821D82CE0101960E94B8
:1009B000300428960FB6F894DEBF0FBECDBFDF918E
:1009C000CF9108950E94E30A89819A8190939502BC
:1009D000809394028B819C819093970280939602DE
:1009E0008D819E8190939902809398021A82198238
:1009F0001C821B82D8CF4F925F926F927F928F9210
:100A00009F92AF92BF92CF92DF92EF92FF920F939D
:100A10001F93CF93DF9300D000D000D0CDB7DEB7C7
:100A20002C01ADB6BEB68B01000F111F8DB79EB75E
:100A3000801B910B0FB6F8949EBF0FBE8DBFEDB714
:100A4000FEB731967F010E0F1F1F6F0144300CF46B
:100A500078C096E0692E712C812C912C0E941A0985
:100A6000A40193010E94A7096F5F7F4F8F4F9F4F93
:100A7000F601619371936F01E017F10779F750E088
:100A800040E06EE171E08EE892E00E94E703052C01
:100A9000000C66087708F701C190D1907F01D092D1
:100AA000E501C092E401F1E0CF16D10409F060C085
:100AB00061E085E00E94D601C301B2010E944702B5
:100AC00060E085E00E94D601C301B2010E944702A6
:100AD0001A8219821C821B821E821D826EE872E0BD
:100AE000CE0101960E940804B601CE0101960E9433
:100AF000B103BC018EE892E00E940804CE01019689
:100B00000E943004E016F10631F60FB6F894BEBE2E
:100B10000FBEADBE26960FB6F894DEBF0FBECDBF9A
:100B2000DF91CF911F910F91FF90EF90DF90CF90C9
:100B3000BF90AF909F908F907F906F905F904F90FD
:100B4000089583E0682E712C812C912C0E941A0943
:100B5000A40193010E94A7096F5F7F4F8F4F9F4FA2
:100B6000F601619371936F010E171F0779F787CF15
:100B700082E0C816D10459F461E086E00E94D601F3
:100B8000C301B2010E94470260E086E09BCF93E080
:100B9000C916D10459F461E087E00E94D601C3016F
:100BA000B2010E94470260E087E08CCFE4E0CE16FD
:100BB000D10459F461E088E00E94D601C301B2017A
:100BC0000E94470260E088E07DCFF5E0CF16D104B7
:100BD00059F461E089E00E94D601C301B2010E948C
:100BE000470260E089E06ECF86E0C816D10409F0C4
:100BF0006FCF61E08AE00E94D601C301B2010E947A
:100C0000470260E08AE05ECF1F920F920FB60F920C
:100C100011242F933F934F935F936F937F938F9301
:100C20009F93AF93BF93EF93FF9381EF91E00E9467
:100C30004701FF91EF91BF91AF919F918F917F916C
:100C40006F915F914F913F912F910F900FBE0F9039
:100C50001F9018951F920F920FB60F9211242F9389
:100C60008F939F93EF93FF93E0910102F091020223
:100C70008081E0910702F091080282FD1BC0908103
:100C800080910A028F5F8F7320910B02821741F0CF
:100C9000E0910A02F0E0EF50FE4F958F80930A0238
:100CA000FF91EF919F918F912F910F900FBE0F9019
:100CB0001F9018958081F4CF1F920F920FB60F925C
:100CC00011242F933F938F939F93AF93BF93809162
:100CD000ED019091EE01A091EF01B091F001309102
:100CE000E60123E0230F2D3758F50196A11DB11D14
:100CF0002093E6018093ED019093EE01A093EF0124
:100D0000B093F0018091E7019091E801A091E90191
:100D1000B091EA010196A11DB11D8093E701909366
:100D2000E801A093E901B093EA01BF91AF919F91CF
:100D30008F913F912F910F900FBE0F901F9018959C
:100D400026E8230F0296A11DB11DD2CFE1EFF1E0FD
:100D50001382128288EE93E0A0E0B0E08483958352
:100D6000A683B7838EE091E09183808385EC90E049
:100D70009587848784EC90E09787868780EC90E065
:100D8000918B808B81EC90E0938B828B82EC90E056
:100D9000958B848B86EC90E0978B868B118E128ED0
:100DA000138E148E6EE171E084E992E00E941F04BC
:100DB0006EE171E08EE892E00C941F04CF93DF9314
:100DC00000D000D000D0CDB7DEB7789484B5826073
:100DD00084BD84B5816084BD85B5826085BD85B5DF
:100DE000816085BD80916E00816080936E0010925D
:100DF00081008091810082608093810080918100D8
:100E00008160809381008091800081608093800068
:100E10008091B10084608093B1008091B0008160C6
:100E20008093B00080917A00846080937A008091F2
:100E30007A00826080937A0080917A00816080934A
:100E40007A0080917A00806880937A001092C100C5
:100E5000E0910102F091020282E08083E091FD01C5
:100E6000F091FE011082E091FF01F09100028FEC01
:100E7000808310920902E0910502F091060286E05B
:100E80008083E0910302F09104028081806180837D
:100E9000E0910302F0910402808188608083E091F8
:100EA0000302F0910402808180688083E091030254
:100EB000F091040280818F7D808325E030E0F9018C
:100EC000EC55FF4F4491F901E057FF4F849188237F
:100ED00099F090E0880F991FFC01EA57FF4FA59108
:100EE000B491FC01E458FF4F859194918FB7F89429
:100EF000EC91E42BEC938FBF2F5F3F4F2B303105EC
:100F0000F1F680E480937C0080917A008064809385
:100F10007A0080917A0086FDFCCF80917800609104
:100F20007900762F682F072E000C880B990B61151E
:100F300071058105910511F00E94690980E0E82E94
:100F400080E0F82E97E0D92E11E028E0C22E8091A3
:100F5000EC0181114CC0E091EB01E93008F047C091
:100F60000E2E000CFF0BE954F84F0C94410AC007F9
:100F7000030818082B083F08530867087B088808EF
:100F800088E691E00E94BC028BE791E00E94BC02DF
:100F90000E9487046AE871E0CE0101960E941F0456
:100FA00080919802909199022D813E8100E08217F4
:100FB000930741F401E0892B29F0CE0101960E94AC
:100FC000F102082FCE0101960E943004002369F03F
:100FD0001093EB018CE891E00E94BC0263E070E0AA
:100FE00088E592E00E947A0202C00E94E402E114C5
:100FF000F10409F4ACCF0E943301882309F4A7CF90
:101000000E940000A4CF81E090E00E94380441E0FB
:1010100063E070E088EE93E00E94FB040E94870486
:101020000E941C03882309F382E00E94D302DFCFD1
:1010300082E090E00E94380442E065E070E088EED3
:1010400093E00E94FB040E9487040E941C038823F3
:1010500061F283E0EACF83E090E00E94380443E04D
:1010600067E070E084E893E00E94FB040E9487043C
:101070000E941C03882309F4B8CF84E0D6CF84E013
:1010800090E00E94380444E069E070E084E893E076
:101090000E94FB040E9487040E941C03882309F419
:1010A000A4CF85E0C2CF85E090E00E94380445E0FF
:1010B0006BE070E080E293E00E94FB040E948704F2
:1010C0000E941C03882309F490CF86E0AECF86E00F
:1010D00090E00E94380446E06DE070E08CEB92E016
:1010E0000E94FB040E9487040E941C03882309F4C9
:1010F0007CCF88E09ACF8FE991E00E94BC0265E046
:1011000070E084E690E00E947A02C092EB016FCF1B
:1011100089EA91E00E94BC020E9487046AE871E0BB
:10112000CE0101960E941F0480919802909199022D
:101130002D813E8100E08217930741F401E0892B65
:1011400029F0CE0101960E94F102082FCE010196EE
:101150000E943004002359F01093EB0180EC91E0E1
:101160000E94BC0263E070E088EE93E03BCFD09237
:10117000EB0182ED91E00E94BC0265E070E08CE240
:1011800091E00E947A021093EC0131CF8EE892E058
:101190000E94300484E992E00C9430048F929F9274
:1011A000AF92BF92CF92DF92EF92FF92CF93DF93F5
:1011B000EC01688179818A819B81611571058105C6
:1011C000910521F464E279ED8BE597E02DE133EFB1
:1011D00041E050E00E94A70949015A019B01AC017E
:1011E000A7EAB1E40E94C6096B017C01ACEEB4EF42
:1011F000A50194010E94D409C60ED71EE81EF91E4F
:10120000F7FE06C081E0C81AD108E10880E8F80AB4
:10121000C882D982EA82FB82C701B6019F77DF913B
:10122000CF91FF90EF90DF90CF90BF90AF909F90C5
:101230008F9008958F929F92AF92BF92CF92DF923C
:10124000EF92FF9260910001709101018091020183
:1012500090910301611571058105910521F464E206
:1012600079ED8BE597E02DE133EF41E050E00E940E
:10127000A70949015A019B01AC01A7EAB1E40E9408
:10128000C6096B017C01ACEEB4EFA50194010E948C
:10129000D409C60ED71EE81EF91EF7FE06C081E06F
:1012A000C81AD108E10880E8F80AC0920001D0927B
:1012B0000101E0920201F0920301C701B6019F779C
:1012C000FF90EF90DF90CF90BF90AF909F908F9066
:1012D000089560930001709301018093020190933F
:1012E00003010895BB274A3031F4992322F4BDE26B
:1012F000909581959F4F0C947E09BB27FB01552744
:10130000AA27880F991FAA1FA41710F0A41B839562
:101310005051B9F7A05DAA3308F0A95DA1930097D9
:1013200079F7B111B1931192CB010C949709DC01BB
:10133000FC01672F71917723E1F7329704C07C910C
:101340006D9370836291AE17BF07C8F30895052EA1
:1013500097FB1EF400940E94BE0957FD07D00E941F
:10136000100A07FC03D04EF40C94BE09509540952A
:10137000309521953F4F4F4F5F4F08959095809541
:10138000709561957F4F8F4F9F4F08950E94320A4D
:10139000A59F900DB49F900DA49F800D911D1124C9
:1013A0000895B7FF0C94C6090E94C609821B930BCF
:1013B00008952F923F924F925F926F927F928F92F9
:1013C0009F92AF92BF92CF92DF92EF92FF920F93D4
:1013D0001F93CF93DF93CDB7DEB7CA1BDB0B0FB6DE
:1013E000F894DEBF0FBECDBF09942A88398848889B
:1013F0005F846E847D848C849B84AA84B984C88431
:10140000DF80EE80FD800C811B81AA81B981CE0F27
:10141000D11D0FB6F894DEBF0FBECDBFED0108950C
:10142000A1E21A2EAA1BBB1BFD010DC0AA1FBB1FE8
:10143000EE1FFF1FA217B307E407F50720F0A21B5A
:10144000B30BE40BF50B661F771F881F991F1A94C7
:1014500069F760957095809590959B01AC01BD01F1
:10146000CF010895A29FB001B39FC001A39F700D4B
:10147000811D1124911DB29F700D811D1124911D9C
:101480000895EE0FFF1F0590F491E02D09940F933E
:101490001F93CF93DF938230910510F482E090E0A8
:1014A000E0919C02F0919D0230E020E0B0E0A0E0ED
:1014B000309799F42115310509F44AC0281B390BDE
:1014C00024303105D8F58A819B816115710589F138
:1014D000FB0193838283FE0111C04081518102810F
:1014E000138148175907E0F04817590799F41097E6
:1014F00061F012960C93129713961C933296CF01BB
:10150000DF91CF911F910F91089500939C0210934A
:101510009D02F4CF2115310551F04217530738F0E1
:10152000A901DB019A01BD01DF01F801C1CFEF0183
:10153000F9CF90939D0280939C02CDCFFE01E20FE4
:10154000F31F819391932250310939832883D7CF98
:1015500020919A0230919B02232B41F420910601A5
:101560003091070130939B0220939A02209104014D
:10157000309105012115310541F42DB73EB7409159
:10158000080150910901241B350BE0919A02F0915A
:101590009B02E217F307A0F42E1B3F0B2817390715
:1015A00078F0AC014E5F5F4F2417350748F04E0FBF
:1015B0005F1F50939B0240939A02819391939FCF18
:1015C000F0E0E0E09CCFCF93DF930097E9F0FC01DF
:1015D000329713821282A0919C02B0919D02ED017C
:1015E00030E020E01097A1F420813181820F931F19
:1015F00020919A0230919B022817390709F061C0A7
:10160000F0939B02E0939A02DF91CF910895EA0153
:10161000CE17DF07E8F54A815B819E014115510530
:10162000B1F7E901FB83EA8349915991C40FD51FB2
:10163000EC17FD0761F4808191810296840F951F5C
:10164000E90199838883828193819B838A83F0E077
:10165000E0E012968D919C9113970097B9F52D912A
:101660003C911197CD010296820F931F20919A020F
:1016700030919B022817390739F6309751F51092AF
:101680009D0210929C02B0939B02A0939A02BCCF41
:10169000D383C28340815181840F951FC817D90716
:1016A00061F44E5F5F4F88819981480F591F5183C4
:1016B00040838A819B81938382832115310509F0C0
:1016C000B0CFF0939D02E0939C029ECFFD01DC0120
:1016D000C0CF13821282D7CFB0E0A0E0E2E7FBE0F8
:1016E0000C94DB098C01009751F4CB010E94470A4E
:1016F0008C01C801CDB7DEB7E0E10C94F709FC011D
:10170000E60FF71F9C0122503109E217F30708F496
:101710009DC0D901CD91DC911197C617D70798F0DC
:10172000C530D10530F3CE0104978617970708F32B
:10173000C61BD70B2297C193D1936D937C93CF0196
:101740000E94E30AD6CF5B01AC1ABD0A4C018C0E95
:101750009D1EA0919C02B0919D02512C412CF12C18
:10176000E12C109731F580919A0290919B02881597
:10177000990509F05CC04616570608F058C08091DC
:10178000040190910501009741F48DB79EB74091F7
:10179000080150910901841B950BE817F90708F01F
:1017A00055C0F0939B02E0939A02F9017183608324
:1017B000A0CF8D919C91119712966C9012971396D1
:1017C0007C901397A815B90559F56C0142E0C40E39
:1017D000D11CCA14DB0420F1AC014A195B09DA01FF
:1017E0001296159780F06282738251834083D901EB
:1017F0006D937C93E114F10471F0D7011396FC937F
:10180000EE93129776CF22968C0F9D1FF90191834C
:101810008083F301EFCFF0939D02E0939C0269CFA8
:101820004816590608F42C017D01D3019ACFCB014B
:101830000E94470A7C01009749F0AE01B8010E945E
:10184000310CC8010E94E30A870153CF10E000E089
:1018500050CF9111089581548A5108F4805E855AC1
:101860000895FB01DC0102C001900D9241505040EF
:10187000D8F70895FB01DC018D91019080190110CA
:10188000D9F3990B0895FB01DC0101900D92002022
:10189000E1F7089510E0CDE5D0E004C0FE010E941C
:0E18A000410A2196CE35D107C9F7F894FFCF43
:1018AE000100000000009E0280000000000069019F
:1018BE008900B600B6012701C50019010D0A0050B6
:1018CE0061726162656E73212070726F78696D6FDF
:1018DE00206E6976656C2E004572726F6F6F6F2188
:1018EE002121002A2A2A2A2A204E6976656C200098
:1018FE002A20496E73697261207375612072657357
:10190E00706F737461202A002A2A2A2A2A20494ECF
:10191E004943494F202A2A2A2A2A00436F6D6563BC
:10192E0061723F2028732F6E290073004A6F676F14
:10193E0020636F6D65C3A7616E646F2E2E2E0047F8
:10194E00616D65204F766572006A6F676172206EF9
:10195E006F76616D656E74653F2028732F6E29005A
:10196E004A6F676F20636F6D6563616E646F2E2EB5
:10197E002E004A6F676F206E616F20696E69636912
:04198E0061646F0021
:00000001FF
